{
  "_format": "hh-sol-artifact-1",
  "contractName": "IdeaSBT",
  "sourceName": "contracts/idea3/IdeaSBT.sol",
  "abi": [
    {
      "inputs": [],
      "stateMutability": "nonpayable",
      "type": "constructor"
    },
    {
      "anonymous": false,
      "inputs": [
        {
          "indexed": true,
          "internalType": "address",
          "name": "owner",
          "type": "address"
        },
        {
          "indexed": true,
          "internalType": "address",
          "name": "approved",
          "type": "address"
        },
        {
          "indexed": true,
          "internalType": "uint256",
          "name": "tokenId",
          "type": "uint256"
        }
      ],
      "name": "Approval",
      "type": "event"
    },
    {
      "anonymous": false,
      "inputs": [
        {
          "indexed": true,
          "internalType": "address",
          "name": "owner",
          "type": "address"
        },
        {
          "indexed": true,
          "internalType": "address",
          "name": "operator",
          "type": "address"
        },
        {
          "indexed": false,
          "internalType": "bool",
          "name": "approved",
          "type": "bool"
        }
      ],
      "name": "ApprovalForAll",
      "type": "event"
    },
    {
      "anonymous": false,
      "inputs": [
        {
          "indexed": false,
          "internalType": "uint256",
          "name": "id",
          "type": "uint256"
        }
      ],
      "name": "IdeaApproved",
      "type": "event"
    },
    {
      "anonymous": false,
      "inputs": [
        {
          "indexed": false,
          "internalType": "uint256",
          "name": "id",
          "type": "uint256"
        },
        {
          "indexed": false,
          "internalType": "string",
          "name": "name",
          "type": "string"
        },
        {
          "indexed": false,
          "internalType": "string",
          "name": "desc",
          "type": "string"
        },
        {
          "indexed": false,
          "internalType": "string",
          "name": "markdown",
          "type": "string"
        },
        {
          "indexed": false,
          "internalType": "address",
          "name": "submitter",
          "type": "address"
        },
        {
          "indexed": false,
          "internalType": "string",
          "name": "submitterName",
          "type": "string"
        }
      ],
      "name": "IdeaSubmitted",
      "type": "event"
    },
    {
      "anonymous": false,
      "inputs": [
        {
          "indexed": false,
          "internalType": "uint256",
          "name": "id",
          "type": "uint256"
        }
      ],
      "name": "IdeaUnapproved",
      "type": "event"
    },
    {
      "anonymous": false,
      "inputs": [
        {
          "indexed": true,
          "internalType": "address",
          "name": "previousOwner",
          "type": "address"
        },
        {
          "indexed": true,
          "internalType": "address",
          "name": "newOwner",
          "type": "address"
        }
      ],
      "name": "OwnershipTransferred",
      "type": "event"
    },
    {
      "anonymous": false,
      "inputs": [
        {
          "indexed": true,
          "internalType": "address",
          "name": "from",
          "type": "address"
        },
        {
          "indexed": true,
          "internalType": "address",
          "name": "to",
          "type": "address"
        },
        {
          "indexed": true,
          "internalType": "uint256",
          "name": "tokenId",
          "type": "uint256"
        }
      ],
      "name": "Transfer",
      "type": "event"
    },
    {
      "inputs": [],
      "name": "CANNOT_TRANSFER_TO_ZERO_ADDRESS",
      "outputs": [
        {
          "internalType": "string",
          "name": "",
          "type": "string"
        }
      ],
      "stateMutability": "view",
      "type": "function"
    },
    {
      "inputs": [],
      "name": "NOT_CURRENT_OWNER",
      "outputs": [
        {
          "internalType": "string",
          "name": "",
          "type": "string"
        }
      ],
      "stateMutability": "view",
      "type": "function"
    },
    {
      "inputs": [
        {
          "internalType": "address",
          "name": "to",
          "type": "address"
        },
        {
          "internalType": "uint256",
          "name": "tokenId",
          "type": "uint256"
        }
      ],
      "name": "approve",
      "outputs": [],
      "stateMutability": "nonpayable",
      "type": "function"
    },
    {
      "inputs": [
        {
          "internalType": "uint256",
          "name": "id",
          "type": "uint256"
        }
      ],
      "name": "approveIdea",
      "outputs": [
        {
          "internalType": "address",
          "name": "",
          "type": "address"
        }
      ],
      "stateMutability": "nonpayable",
      "type": "function"
    },
    {
      "inputs": [
        {
          "internalType": "address",
          "name": "owner",
          "type": "address"
        }
      ],
      "name": "balanceOf",
      "outputs": [
        {
          "internalType": "uint256",
          "name": "",
          "type": "uint256"
        }
      ],
      "stateMutability": "view",
      "type": "function"
    },
    {
      "inputs": [
        {
          "internalType": "uint256",
          "name": "tokenId",
          "type": "uint256"
        }
      ],
      "name": "getApproved",
      "outputs": [
        {
          "internalType": "address",
          "name": "",
          "type": "address"
        }
      ],
      "stateMutability": "view",
      "type": "function"
    },
    {
      "inputs": [
        {
          "internalType": "uint256",
          "name": "id",
          "type": "uint256"
        }
      ],
      "name": "getIdea",
      "outputs": [
        {
          "internalType": "string",
          "name": "",
          "type": "string"
        },
        {
          "internalType": "string",
          "name": "",
          "type": "string"
        },
        {
          "internalType": "string",
          "name": "",
          "type": "string"
        },
        {
          "internalType": "address",
          "name": "",
          "type": "address"
        },
        {
          "internalType": "string",
          "name": "",
          "type": "string"
        },
        {
          "internalType": "bool",
          "name": "",
          "type": "bool"
        },
        {
          "internalType": "uint256",
          "name": "",
          "type": "uint256"
        }
      ],
      "stateMutability": "view",
      "type": "function"
    },
    {
      "inputs": [
        {
          "internalType": "uint256[]",
          "name": "_ideaIds",
          "type": "uint256[]"
        }
      ],
      "name": "getIdeas",
      "outputs": [
        {
          "components": [
            {
              "internalType": "uint256",
              "name": "id",
              "type": "uint256"
            },
            {
              "internalType": "string",
              "name": "title",
              "type": "string"
            },
            {
              "internalType": "string",
              "name": "desc",
              "type": "string"
            },
            {
              "internalType": "string",
              "name": "markdown",
              "type": "string"
            },
            {
              "internalType": "address",
              "name": "submitter",
              "type": "address"
            },
            {
              "internalType": "string",
              "name": "submitterName",
              "type": "string"
            },
            {
              "internalType": "bool",
              "name": "approved",
              "type": "bool"
            }
          ],
          "internalType": "struct IdeaSBT.IdeaStruct[]",
          "name": "",
          "type": "tuple[]"
        }
      ],
      "stateMutability": "view",
      "type": "function"
    },
    {
      "inputs": [
        {
          "internalType": "uint256",
          "name": "tokenId",
          "type": "uint256"
        }
      ],
      "name": "getTokenURI",
      "outputs": [
        {
          "internalType": "string",
          "name": "",
          "type": "string"
        }
      ],
      "stateMutability": "view",
      "type": "function"
    },
    {
      "inputs": [],
      "name": "ideaCount",
      "outputs": [
        {
          "internalType": "uint256",
          "name": "",
          "type": "uint256"
        }
      ],
      "stateMutability": "view",
      "type": "function"
    },
    {
      "inputs": [
        {
          "internalType": "uint256",
          "name": "",
          "type": "uint256"
        }
      ],
      "name": "ideas",
      "outputs": [
        {
          "internalType": "uint256",
          "name": "id",
          "type": "uint256"
        },
        {
          "internalType": "string",
          "name": "title",
          "type": "string"
        },
        {
          "internalType": "string",
          "name": "desc",
          "type": "string"
        },
        {
          "internalType": "string",
          "name": "markdown",
          "type": "string"
        },
        {
          "internalType": "address",
          "name": "submitter",
          "type": "address"
        },
        {
          "internalType": "string",
          "name": "submitterName",
          "type": "string"
        },
        {
          "internalType": "bool",
          "name": "approved",
          "type": "bool"
        }
      ],
      "stateMutability": "view",
      "type": "function"
    },
    {
      "inputs": [
        {
          "internalType": "address",
          "name": "owner",
          "type": "address"
        },
        {
          "internalType": "address",
          "name": "operator",
          "type": "address"
        }
      ],
      "name": "isApprovedForAll",
      "outputs": [
        {
          "internalType": "bool",
          "name": "",
          "type": "bool"
        }
      ],
      "stateMutability": "view",
      "type": "function"
    },
    {
      "inputs": [],
      "name": "name",
      "outputs": [
        {
          "internalType": "string",
          "name": "",
          "type": "string"
        }
      ],
      "stateMutability": "view",
      "type": "function"
    },
    {
      "inputs": [],
      "name": "owner",
      "outputs": [
        {
          "internalType": "address",
          "name": "",
          "type": "address"
        }
      ],
      "stateMutability": "view",
      "type": "function"
    },
    {
      "inputs": [
        {
          "internalType": "uint256",
          "name": "tokenId",
          "type": "uint256"
        }
      ],
      "name": "ownerOf",
      "outputs": [
        {
          "internalType": "address",
          "name": "",
          "type": "address"
        }
      ],
      "stateMutability": "view",
      "type": "function"
    },
    {
      "inputs": [
        {
          "internalType": "address",
          "name": "from",
          "type": "address"
        },
        {
          "internalType": "address",
          "name": "to",
          "type": "address"
        },
        {
          "internalType": "uint256",
          "name": "tokenId",
          "type": "uint256"
        }
      ],
      "name": "safeTransferFrom",
      "outputs": [],
      "stateMutability": "nonpayable",
      "type": "function"
    },
    {
      "inputs": [
        {
          "internalType": "address",
          "name": "from",
          "type": "address"
        },
        {
          "internalType": "address",
          "name": "to",
          "type": "address"
        },
        {
          "internalType": "uint256",
          "name": "tokenId",
          "type": "uint256"
        },
        {
          "internalType": "bytes",
          "name": "data",
          "type": "bytes"
        }
      ],
      "name": "safeTransferFrom",
      "outputs": [],
      "stateMutability": "nonpayable",
      "type": "function"
    },
    {
      "inputs": [
        {
          "internalType": "address",
          "name": "operator",
          "type": "address"
        },
        {
          "internalType": "bool",
          "name": "approved",
          "type": "bool"
        }
      ],
      "name": "setApprovalForAll",
      "outputs": [],
      "stateMutability": "nonpayable",
      "type": "function"
    },
    {
      "inputs": [
        {
          "internalType": "address",
          "name": "approver",
          "type": "address"
        }
      ],
      "name": "setApprover",
      "outputs": [],
      "stateMutability": "nonpayable",
      "type": "function"
    },
    {
      "inputs": [
        {
          "internalType": "uint256",
          "name": "fee",
          "type": "uint256"
        }
      ],
      "name": "setFee",
      "outputs": [],
      "stateMutability": "nonpayable",
      "type": "function"
    },
    {
      "inputs": [
        {
          "internalType": "bool",
          "name": "feeOn",
          "type": "bool"
        }
      ],
      "name": "setFeeOn",
      "outputs": [],
      "stateMutability": "nonpayable",
      "type": "function"
    },
    {
      "inputs": [
        {
          "internalType": "string",
          "name": "title",
          "type": "string"
        },
        {
          "internalType": "string",
          "name": "desc",
          "type": "string"
        },
        {
          "internalType": "string",
          "name": "markdown",
          "type": "string"
        },
        {
          "internalType": "string",
          "name": "submitterName",
          "type": "string"
        }
      ],
      "name": "submitIdea",
      "outputs": [],
      "stateMutability": "payable",
      "type": "function"
    },
    {
      "inputs": [
        {
          "internalType": "bytes4",
          "name": "interfaceId",
          "type": "bytes4"
        }
      ],
      "name": "supportsInterface",
      "outputs": [
        {
          "internalType": "bool",
          "name": "",
          "type": "bool"
        }
      ],
      "stateMutability": "view",
      "type": "function"
    },
    {
      "inputs": [],
      "name": "symbol",
      "outputs": [
        {
          "internalType": "string",
          "name": "",
          "type": "string"
        }
      ],
      "stateMutability": "view",
      "type": "function"
    },
    {
      "inputs": [
        {
          "internalType": "uint256",
          "name": "tokenId",
          "type": "uint256"
        }
      ],
      "name": "tokenURI",
      "outputs": [
        {
          "internalType": "string",
          "name": "",
          "type": "string"
        }
      ],
      "stateMutability": "view",
      "type": "function"
    },
    {
      "inputs": [
        {
          "internalType": "address",
          "name": "from",
          "type": "address"
        },
        {
          "internalType": "address",
          "name": "to",
          "type": "address"
        },
        {
          "internalType": "uint256",
          "name": "tokenId",
          "type": "uint256"
        }
      ],
      "name": "transferFrom",
      "outputs": [],
      "stateMutability": "nonpayable",
      "type": "function"
    },
    {
      "inputs": [
        {
          "internalType": "address",
          "name": "_newOwner",
          "type": "address"
        }
      ],
      "name": "transferOwnership",
      "outputs": [],
      "stateMutability": "nonpayable",
      "type": "function"
    },
    {
      "inputs": [
        {
          "internalType": "uint256",
          "name": "id",
          "type": "uint256"
        }
      ],
      "name": "unapproveIdea",
      "outputs": [],
      "stateMutability": "nonpayable",
      "type": "function"
    }
  ],
  "bytecode": "0x60806040526008805460ff60a01b1916905567016345785d8a00006009553480156200002a57600080fd5b50604080518082018252600880825267125919584cd4d09560c21b6020808401828152855180870190965292855284015281519192916200006e916000916200009f565b508051620000849060019060208401906200009f565b5050600680546001600160a01b031916331790555062000182565b828054620000ad9062000145565b90600052602060002090601f016020900481019282620000d157600085556200011c565b82601f10620000ec57805160ff19168380011785556200011c565b828001600101855582156200011c579182015b828111156200011c578251825591602001919060010190620000ff565b506200012a9291506200012e565b5090565b5b808211156200012a57600081556001016200012f565b600181811c908216806200015a57607f821691505b602082108114156200017c57634e487b7160e01b600052602260045260246000fd5b50919050565b61506a80620001926000396000f3fe6080604052600436106101b75760003560e01c80636d15ea82116100ec578063b88d4fde1161008a578063e985e9c511610064578063e985e9c51461052f578063f2fde38b14610585578063f3fe3bc3146105a5578063fc4064b3146105ee57600080fd5b8063b88d4fde146104ef578063c87b56dd146102fe578063cb66f5551461050f57600080fd5b80638da5cb5b116100c65780638da5cb5b1461045a57806395b538371461048757806395d89b41146104ba578063a22cb465146104cf57600080fd5b80636d15ea82146103de57806370a08231146103f1578063860d248a1461041157600080fd5b8063350ff3081161015957806344de6b2f1161013357806344de6b2f1461033e5780635986331c146103715780636352211e1461039e57806369fe0e2d146103be57600080fd5b8063350ff308146102de5780633bb3a24d146102fe57806342842e0e1461031e57600080fd5b8063095ea7b311610195578063095ea7b3146102585780630b5f20bd1461027a57806323b872dd1461029e5780633156560e146102be57600080fd5b806301ffc9a7146101bc57806306fdde03146101f1578063081812fc14610213575b600080fd5b3480156101c857600080fd5b506101dc6101d7366004613416565b61060e565b60405190151581526020015b60405180910390f35b3480156101fd57600080fd5b506102066106f3565b6040516101e891906134b0565b34801561021f57600080fd5b5061023361022e3660046134c3565b610785565b60405173ffffffffffffffffffffffffffffffffffffffff90911681526020016101e8565b34801561026457600080fd5b50610278610273366004613500565b6107b9565b005b34801561028657600080fd5b50610290600a5481565b6040519081526020016101e8565b3480156102aa57600080fd5b506102786102b936600461352a565b610820565b3480156102ca57600080fd5b506102786102d9366004613566565b610882565b3480156102ea57600080fd5b506102336102f93660046134c3565b610950565b34801561030a57600080fd5b506102066103193660046134c3565b610af0565b34801561032a57600080fd5b5061027861033936600461352a565b610e2b565b34801561034a57600080fd5b5061035e6103593660046134c3565b610e4b565b6040516101e89796959493929190613581565b34801561037d57600080fd5b5061039161038c36600461367f565b6110f3565b6040516101e89190613725565b3480156103aa57600080fd5b506102336103b93660046134c3565b6114a0565b3480156103ca57600080fd5b506102786103d93660046134c3565b61152c565b6102786103ec3660046138d7565b6115b8565b3480156103fd57600080fd5b5061029061040c366004613566565b611818565b34801561041d57600080fd5b506102066040518060400160405280600681526020017f303138303032000000000000000000000000000000000000000000000000000081525081565b34801561046657600080fd5b506006546102339073ffffffffffffffffffffffffffffffffffffffff1681565b34801561049357600080fd5b506104a76104a23660046134c3565b6118e6565b6040516101e89796959493929190613984565b3480156104c657600080fd5b50610206611b60565b3480156104db57600080fd5b506102786104ea366004613a1a565b611b6f565b3480156104fb57600080fd5b5061027861050a366004613a4d565b611b7e565b34801561051b57600080fd5b5061027861052a3660046134c3565b611c26565b34801561053b57600080fd5b506101dc61054a366004613abd565b73ffffffffffffffffffffffffffffffffffffffff918216600090815260056020908152604080832093909416825291909152205460ff1690565b34801561059157600080fd5b506102786105a0366004613566565b611dc1565b3480156105b157600080fd5b506102066040518060400160405280600681526020017f303138303031000000000000000000000000000000000000000000000000000081525081565b3480156105fa57600080fd5b50610278610609366004613ae7565b611f59565b60007fffffffff0000000000000000000000000000000000000000000000000000000082167f80ac58cd0000000000000000000000000000000000000000000000000000000014806106a157507fffffffff0000000000000000000000000000000000000000000000000000000082167f5b5e139f00000000000000000000000000000000000000000000000000000000145b806106ed57507f01ffc9a7000000000000000000000000000000000000000000000000000000007fffffffff000000000000000000000000000000000000000000000000000000008316145b92915050565b60606000805461070290613b02565b80601f016020809104026020016040519081016040528092919081815260200182805461072e90613b02565b801561077b5780601f106107505761010080835404028352916020019161077b565b820191906000526020600020905b81548152906001019060200180831161075e57829003601f168201915b5050505050905090565b60006107908261202a565b5060009081526004602052604090205473ffffffffffffffffffffffffffffffffffffffff1690565b6040517f08c379a000000000000000000000000000000000000000000000000000000000815260206004820152600d60248201527f63616e6f7420617070726f76650000000000000000000000000000000000000060448201526064015b60405180910390fd5b6040517f08c379a000000000000000000000000000000000000000000000000000000000815260206004820152600e60248201527f63616e6f74207472616e736665720000000000000000000000000000000000006044820152606401610817565b60068054604080518082019091529182527f3031383030310000000000000000000000000000000000000000000000000000602083015273ffffffffffffffffffffffffffffffffffffffff163314610908576040517f08c379a000000000000000000000000000000000000000000000000000000000815260040161081791906134b0565b50600880547fffffffffffffffffffffffff00000000000000000000000000000000000000001673ffffffffffffffffffffffffffffffffffffffff92909216919091179055565b60085460009073ffffffffffffffffffffffffffffffffffffffff1633146109d4576040517f08c379a000000000000000000000000000000000000000000000000000000000815260206004820152601f60248201527f4f6e6c7920617070726f7665722063616e20617070726f7665206964656173006044820152606401610817565b60008281526007602052604090206006015460ff1615610a50576040517f08c379a000000000000000000000000000000000000000000000000000000000815260206004820152601560248201527f4964656120616c726561647920617070726f76656400000000000000000000006044820152606401610817565b6000828152600760205260409081902060060180547fffffffffffffffffffffffffffffffffffffffffffffffffffffffffffffff00166001179055517febb90caf7614b83edad4bf188ea9f29fcef830109fba086509855d84eb2c3e7190610abc9084815260200190565b60405180910390a15060009081526007602052604090206004015473ffffffffffffffffffffffffffffffffffffffff1690565b60008181526002602052604090205460609073ffffffffffffffffffffffffffffffffffffffff16610b7e576040517f08c379a000000000000000000000000000000000000000000000000000000000815260206004820152601560248201527f746f6b656e496420646f65736e277420657869737400000000000000000000006044820152606401610817565b6106ed600760008481526020019081526020016000206040518060e001604052908160008201548152602001600182018054610bb990613b02565b80601f0160208091040260200160405190810160405280929190818152602001828054610be590613b02565b8015610c325780601f10610c0757610100808354040283529160200191610c32565b820191906000526020600020905b815481529060010190602001808311610c1557829003601f168201915b50505050508152602001600282018054610c4b90613b02565b80601f0160208091040260200160405190810160405280929190818152602001828054610c7790613b02565b8015610cc45780601f10610c9957610100808354040283529160200191610cc4565b820191906000526020600020905b815481529060010190602001808311610ca757829003601f168201915b50505050508152602001600382018054610cdd90613b02565b80601f0160208091040260200160405190810160405280929190818152602001828054610d0990613b02565b8015610d565780601f10610d2b57610100808354040283529160200191610d56565b820191906000526020600020905b815481529060010190602001808311610d3957829003601f168201915b5050509183525050600482015473ffffffffffffffffffffffffffffffffffffffff166020820152600582018054604090920191610d9390613b02565b80601f0160208091040260200160405190810160405280929190818152602001828054610dbf90613b02565b8015610e0c5780601f10610de157610100808354040283529160200191610e0c565b820191906000526020600020905b815481529060010190602001808311610def57829003601f168201915b50505091835250506006919091015460ff1615156020909101526120b8565b610e4683838360405180602001604052806000815250611b7e565b505050565b600081815260076020526040812060048101546006820154825460018401805460609687968796919587958795869590946002850194600381019473ffffffffffffffffffffffffffffffffffffffff9092169360059091019260ff909216918790610eb690613b02565b80601f0160208091040260200160405190810160405280929190818152602001828054610ee290613b02565b8015610f2f5780601f10610f0457610100808354040283529160200191610f2f565b820191906000526020600020905b815481529060010190602001808311610f1257829003601f168201915b50505050509650858054610f4290613b02565b80601f0160208091040260200160405190810160405280929190818152602001828054610f6e90613b02565b8015610fbb5780601f10610f9057610100808354040283529160200191610fbb565b820191906000526020600020905b815481529060010190602001808311610f9e57829003601f168201915b50505050509550848054610fce90613b02565b80601f0160208091040260200160405190810160405280929190818152602001828054610ffa90613b02565b80156110475780601f1061101c57610100808354040283529160200191611047565b820191906000526020600020905b81548152906001019060200180831161102a57829003601f168201915b5050505050945082805461105a90613b02565b80601f016020809104026020016040519081016040528092919081815260200182805461108690613b02565b80156110d35780601f106110a8576101008083540402835291602001916110d3565b820191906000526020600020905b8154815290600101906020018083116110b657829003601f168201915b505050505092509650965096509650965096509650919395979092949650565b60606000825167ffffffffffffffff81111561111157611111613601565b60405190808252806020026020018201604052801561119a57816020015b6111876040518060e0016040528060008152602001606081526020016060815260200160608152602001600073ffffffffffffffffffffffffffffffffffffffff168152602001606081526020016000151581525090565b81526020019060019003908161112f5790505b50905060005b835181101561149957600760008583815181106111bf576111bf613b56565b602002602001015181526020019081526020016000206040518060e0016040529081600082015481526020016001820180546111fa90613b02565b80601f016020809104026020016040519081016040528092919081815260200182805461122690613b02565b80156112735780601f1061124857610100808354040283529160200191611273565b820191906000526020600020905b81548152906001019060200180831161125657829003601f168201915b5050505050815260200160028201805461128c90613b02565b80601f01602080910402602001604051908101604052809291908181526020018280546112b890613b02565b80156113055780601f106112da57610100808354040283529160200191611305565b820191906000526020600020905b8154815290600101906020018083116112e857829003601f168201915b5050505050815260200160038201805461131e90613b02565b80601f016020809104026020016040519081016040528092919081815260200182805461134a90613b02565b80156113975780601f1061136c57610100808354040283529160200191611397565b820191906000526020600020905b81548152906001019060200180831161137a57829003601f168201915b5050509183525050600482015473ffffffffffffffffffffffffffffffffffffffff1660208201526005820180546040909201916113d490613b02565b80601f016020809104026020016040519081016040528092919081815260200182805461140090613b02565b801561144d5780601f106114225761010080835404028352916020019161144d565b820191906000526020600020905b81548152906001019060200180831161143057829003601f168201915b50505091835250506006919091015460ff161515602090910152825183908390811061147b5761147b613b56565b6020026020010181905250808061149190613bb4565b9150506111a0565b5092915050565b60008181526002602052604081205473ffffffffffffffffffffffffffffffffffffffff16806106ed576040517f08c379a000000000000000000000000000000000000000000000000000000000815260206004820152601860248201527f4552433732313a20696e76616c696420746f6b656e20494400000000000000006044820152606401610817565b60068054604080518082019091529182527f3031383030310000000000000000000000000000000000000000000000000000602083015273ffffffffffffffffffffffffffffffffffffffff1633146115b2576040517f08c379a000000000000000000000000000000000000000000000000000000000815260040161081791906134b0565b50600955565b60085474010000000000000000000000000000000000000000900460ff1615611677576006546001906116009073ffffffffffffffffffffffffffffffffffffffff16611818565b111561167757662386f26fc10000341015611677576040517f08c379a000000000000000000000000000000000000000000000000000000000815260206004820152600c60248201527f466565206e6f74207061696400000000000000000000000000000000000000006044820152606401610817565b600a546040805160e08101825282815260208082018881528284018890526060830187905233608084015260a08301869052600060c08401819052858152600783529390932082518155925180519293926116d8926001850192019061334f565b50604082015180516116f491600284019160209091019061334f565b506060820151805161171091600384019160209091019061334f565b5060808201516004820180547fffffffffffffffffffffffff00000000000000000000000000000000000000001673ffffffffffffffffffffffffffffffffffffffff90921691909117905560a0820151805161177791600584019160209091019061334f565b5060c09190910151600690910180547fffffffffffffffffffffffffffffffffffffffffffffffffffffffffffffff00169115159190911790556117bb33826121e7565b600a80549060006117cb83613bb4565b91905055507f58ba89f1b89a914e51dcc785bf5cec0886d17f30aea71066066573b28f64759781868686338760405161180996959493929190613bed565b60405180910390a15050505050565b600073ffffffffffffffffffffffffffffffffffffffff82166118bd576040517f08c379a000000000000000000000000000000000000000000000000000000000815260206004820152602960248201527f4552433732313a2061646472657373207a65726f206973206e6f74206120766160448201527f6c6964206f776e657200000000000000000000000000000000000000000000006064820152608401610817565b5073ffffffffffffffffffffffffffffffffffffffff1660009081526003602052604090205490565b6007602052600090815260409020805460018201805491929161190890613b02565b80601f016020809104026020016040519081016040528092919081815260200182805461193490613b02565b80156119815780601f1061195657610100808354040283529160200191611981565b820191906000526020600020905b81548152906001019060200180831161196457829003601f168201915b50505050509080600201805461199690613b02565b80601f01602080910402602001604051908101604052809291908181526020018280546119c290613b02565b8015611a0f5780601f106119e457610100808354040283529160200191611a0f565b820191906000526020600020905b8154815290600101906020018083116119f257829003601f168201915b505050505090806003018054611a2490613b02565b80601f0160208091040260200160405190810160405280929190818152602001828054611a5090613b02565b8015611a9d5780601f10611a7257610100808354040283529160200191611a9d565b820191906000526020600020905b815481529060010190602001808311611a8057829003601f168201915b5050506004840154600585018054949573ffffffffffffffffffffffffffffffffffffffff909216949193509150611ad490613b02565b80601f0160208091040260200160405190810160405280929190818152602001828054611b0090613b02565b8015611b4d5780601f10611b2257610100808354040283529160200191611b4d565b820191906000526020600020905b815481529060010190602001808311611b3057829003601f168201915b5050506006909301549192505060ff1687565b60606001805461070290613b02565b611b7a338383612201565b5050565b611b88338361232f565b611c14576040517f08c379a000000000000000000000000000000000000000000000000000000000815260206004820152602e60248201527f4552433732313a2063616c6c6572206973206e6f7420746f6b656e206f776e6560448201527f72206e6f7220617070726f7665640000000000000000000000000000000000006064820152608401610817565b611c20848484846123ef565b50505050565b60085473ffffffffffffffffffffffffffffffffffffffff163314611ccd576040517f08c379a000000000000000000000000000000000000000000000000000000000815260206004820152602160248201527f4f6e6c7920617070726f7665722063616e20756e617070726f7665206964656160448201527f73000000000000000000000000000000000000000000000000000000000000006064820152608401610817565b60008181526007602052604090206006015460ff161515600114611d4d576040517f08c379a000000000000000000000000000000000000000000000000000000000815260206004820152601760248201527f4964656120616c726561647920756e617070726f7665640000000000000000006044820152606401610817565b6000818152600760205260409081902060060180547fffffffffffffffffffffffffffffffffffffffffffffffffffffffffffffff00169055517f230760c80fef3608425b1f95d72596eeb4a151ec85cc85e682558411eeaf4b6690611db69083815260200190565b60405180910390a150565b60068054604080518082019091529182527f3031383030310000000000000000000000000000000000000000000000000000602083015273ffffffffffffffffffffffffffffffffffffffff163314611e47576040517f08c379a000000000000000000000000000000000000000000000000000000000815260040161081791906134b0565b5060408051808201909152600681527f3031383030320000000000000000000000000000000000000000000000000000602082015273ffffffffffffffffffffffffffffffffffffffff8216611eca576040517f08c379a000000000000000000000000000000000000000000000000000000000815260040161081791906134b0565b5060065460405173ffffffffffffffffffffffffffffffffffffffff8084169216907f8be0079c531659141344cd1fd0a4f28419497f9722a3daafe3b4186f6b6457e090600090a3600680547fffffffffffffffffffffffff00000000000000000000000000000000000000001673ffffffffffffffffffffffffffffffffffffffff92909216919091179055565b60068054604080518082019091529182527f3031383030310000000000000000000000000000000000000000000000000000602083015273ffffffffffffffffffffffffffffffffffffffff163314611fdf576040517f08c379a000000000000000000000000000000000000000000000000000000000815260040161081791906134b0565b506008805491151574010000000000000000000000000000000000000000027fffffffffffffffffffffff00ffffffffffffffffffffffffffffffffffffffff909216919091179055565b60008181526002602052604090205473ffffffffffffffffffffffffffffffffffffffff166120b5576040517f08c379a000000000000000000000000000000000000000000000000000000000815260206004820152601860248201527f4552433732313a20696e76616c696420746f6b656e20494400000000000000006044820152606401610817565b50565b606060006120c98360800151612492565b905060006120da846000015161260f565b6040516020016120ea9190613c85565b60405160208183030381529060405290506000612108858385612741565b90506121be8286602001518760400151848960c0015161215d576040518060400160405280600281526020017f4e6f000000000000000000000000000000000000000000000000000000000000815250612194565b6040518060400160405280600381526020017f59657300000000000000000000000000000000000000000000000000000000008152505b886040516020016121aa96959493929190613cf1565b6040516020818303038152906040526128fe565b6040516020016121ce9190613ebb565b6040516020818303038152906040529350505050919050565b611b7a828260405180602001604052806000815250612a52565b8173ffffffffffffffffffffffffffffffffffffffff168373ffffffffffffffffffffffffffffffffffffffff161415612297576040517f08c379a000000000000000000000000000000000000000000000000000000000815260206004820152601960248201527f4552433732313a20617070726f766520746f2063616c6c6572000000000000006044820152606401610817565b73ffffffffffffffffffffffffffffffffffffffff83811660008181526005602090815260408083209487168084529482529182902080547fffffffffffffffffffffffffffffffffffffffffffffffffffffffffffffff001686151590811790915591519182527f17307eab39ab6107e8899845ad3d59bd9653f200f220920489ca2b5937696c31910160405180910390a3505050565b60008061233b836114a0565b90508073ffffffffffffffffffffffffffffffffffffffff168473ffffffffffffffffffffffffffffffffffffffff1614806123a9575073ffffffffffffffffffffffffffffffffffffffff80821660009081526005602090815260408083209388168352929052205460ff165b806123e757508373ffffffffffffffffffffffffffffffffffffffff166123cf84610785565b73ffffffffffffffffffffffffffffffffffffffff16145b949350505050565b6123fa848484612af5565b61240684848484612d5c565b611c20576040517f08c379a000000000000000000000000000000000000000000000000000000000815260206004820152603260248201527f4552433732313a207472616e7366657220746f206e6f6e20455243373231526560448201527f63656976657220696d706c656d656e74657200000000000000000000000000006064820152608401610817565b60408051602880825260608281019093526000919060208201818036833701905050905060005b60148110156114995760006124cf826013613f00565b6124da906008613f17565b6124e5906002614074565b6125059073ffffffffffffffffffffffffffffffffffffffff87166140af565b60f81b9050600060108260f81c61251c91906140c3565b60f81b905060008160f81c601061253391906140e5565b8360f81c6125419190614106565b60f81b905061254f82612f5b565b8561255b866002613f17565b8151811061256b5761256b613b56565b60200101907effffffffffffffffffffffffffffffffffffffffffffffffffffffffffffff1916908160001a9053506125a381612f5b565b856125af866002613f17565b6125ba906001614129565b815181106125ca576125ca613b56565b60200101907effffffffffffffffffffffffffffffffffffffffffffffffffffffffffffff1916908160001a905350505050808061260790613bb4565b9150506124b9565b60608161264f57505060408051808201909152600181527f3000000000000000000000000000000000000000000000000000000000000000602082015290565b8160005b8115612679578061266381613bb4565b91506126729050600a836140af565b9150612653565b60008167ffffffffffffffff81111561269457612694613601565b6040519080825280601f01601f1916602001820160405280156126be576020820181803683370190505b5090505b84156123e7576126d3600183613f00565b91506126e0600a86614141565b6126eb906030614129565b60f81b81838151811061270057612700613b56565b60200101907effffffffffffffffffffffffffffffffffffffffffffffffffffffffffffff1916908160001a90535061273a600a866140af565b94506126c2565b6060600061274e83612f96565b90506000604051806103a00160405280610379815260200161481d61037991399050600060405180610120016040528060ea815260200161463260ea913990506000604051806101e001604052806101ba81526020016144786101ba91399050600060405180610100016040528060e08152602001614b9660e0913990506128d184898b60200151868d604001516040516020016127f0959493929190614155565b604051602081830303815290604052838b60c00151612844576040518060400160405280600281526020017f4e6f00000000000000000000000000000000000000000000000000000000000081525061287b565b6040518060400160405280600381526020017f59657300000000000000000000000000000000000000000000000000000000008152505b60a08d015160405161289593929187918c90602001614155565b604080517fffffffffffffffffffffffffffffffffffffffffffffffffffffffffffffffe0818403018152908290526121aa92916020016141c0565b6040516020016128e191906141ef565b604051602081830303815290604052955050505050509392505050565b606081516000141561291e57505060408051602081019091526000815290565b6000604051806060016040528060408152602001614c76604091399050600060038451600261294d9190614129565b61295791906140af565b612962906004613f17565b67ffffffffffffffff81111561297a5761297a613601565b6040519080825280601f01601f1916602001820160405280156129a4576020820181803683370190505b509050600182016020820185865187015b80821015612a10576003820191508151603f8160121c168501518453600184019350603f81600c1c168501518453600184019350603f8160061c168501518453600184019350603f81168501518453506001830192506129b5565b5050600386510660018114612a2c5760028114612a3f57612a47565b603d6001830353603d6002830353612a47565b603d60018303535b509195945050505050565b612a5c83836130ed565b612a696000848484612d5c565b610e46576040517f08c379a000000000000000000000000000000000000000000000000000000000815260206004820152603260248201527f4552433732313a207472616e7366657220746f206e6f6e20455243373231526560448201527f63656976657220696d706c656d656e74657200000000000000000000000000006064820152608401610817565b8273ffffffffffffffffffffffffffffffffffffffff16612b15826114a0565b73ffffffffffffffffffffffffffffffffffffffff1614612bb8576040517f08c379a000000000000000000000000000000000000000000000000000000000815260206004820152602560248201527f4552433732313a207472616e736665722066726f6d20696e636f72726563742060448201527f6f776e65720000000000000000000000000000000000000000000000000000006064820152608401610817565b73ffffffffffffffffffffffffffffffffffffffff8216612c5a576040517f08c379a0000000000000000000000000000000000000000000000000000000008152602060048201526024808201527f4552433732313a207472616e7366657220746f20746865207a65726f2061646460448201527f72657373000000000000000000000000000000000000000000000000000000006064820152608401610817565b612c656000826132af565b73ffffffffffffffffffffffffffffffffffffffff83166000908152600360205260408120805460019290612c9b908490613f00565b909155505073ffffffffffffffffffffffffffffffffffffffff82166000908152600360205260408120805460019290612cd6908490614129565b909155505060008181526002602052604080822080547fffffffffffffffffffffffff00000000000000000000000000000000000000001673ffffffffffffffffffffffffffffffffffffffff86811691821790925591518493918716917fddf252ad1be2c89b69c2b068fc378daa952ba7f163c4a11628f55a4df523b3ef91a4505050565b600073ffffffffffffffffffffffffffffffffffffffff84163b15612f50576040517f150b7a0200000000000000000000000000000000000000000000000000000000815273ffffffffffffffffffffffffffffffffffffffff85169063150b7a0290612dd3903390899088908890600401614234565b602060405180830381600087803b158015612ded57600080fd5b505af1925050508015612e3b575060408051601f3d9081017fffffffffffffffffffffffffffffffffffffffffffffffffffffffffffffffe0168201909252612e389181019061427d565b60015b612f05573d808015612e69576040519150601f19603f3d011682016040523d82523d6000602084013e612e6e565b606091505b508051612efd576040517f08c379a000000000000000000000000000000000000000000000000000000000815260206004820152603260248201527f4552433732313a207472616e7366657220746f206e6f6e20455243373231526560448201527f63656976657220696d706c656d656e74657200000000000000000000000000006064820152608401610817565b805181602001fd5b7fffffffff00000000000000000000000000000000000000000000000000000000167f150b7a02000000000000000000000000000000000000000000000000000000001490506123e7565b506001949350505050565b6000600a60f883901c1015612f8257612f7960f883901c603061429a565b60f81b92915050565b612f7960f883901c605761429a565b919050565b606060006040518060a00160405280607c8152602001614d4a607c913990506000604051806101400160405280610101815260200161471c6101019139905060006040518061016001604052806101378152602001614dc6610137913990506000604051806101600160405280610139815260200161433f6101399139905060006040518061016001604052806101388152602001614efd6101389139905060006040518060c0016040528060948152602001614cb66094913990508588868a878c60405160200161306d969594939291906142bf565b6040516020818303038152906040528389848b85604051602001613095959493929190614155565b604080517fffffffffffffffffffffffffffffffffffffffffffffffffffffffffffffffe0818403018152908290526130d192916020016141c0565b6040516020818303038152906040529650505050505050919050565b73ffffffffffffffffffffffffffffffffffffffff821661316a576040517f08c379a000000000000000000000000000000000000000000000000000000000815260206004820181905260248201527f4552433732313a206d696e7420746f20746865207a65726f20616464726573736044820152606401610817565b60008181526002602052604090205473ffffffffffffffffffffffffffffffffffffffff16156131f6576040517f08c379a000000000000000000000000000000000000000000000000000000000815260206004820152601c60248201527f4552433732313a20746f6b656e20616c7265616479206d696e746564000000006044820152606401610817565b73ffffffffffffffffffffffffffffffffffffffff8216600090815260036020526040812080546001929061322c908490614129565b909155505060008181526002602052604080822080547fffffffffffffffffffffffff00000000000000000000000000000000000000001673ffffffffffffffffffffffffffffffffffffffff861690811790915590518392907fddf252ad1be2c89b69c2b068fc378daa952ba7f163c4a11628f55a4df523b3ef908290a45050565b600081815260046020526040902080547fffffffffffffffffffffffff00000000000000000000000000000000000000001673ffffffffffffffffffffffffffffffffffffffff84169081179091558190613309826114a0565b73ffffffffffffffffffffffffffffffffffffffff167f8c5be1e5ebec7d5bd14f71427d1e84f3dd0314c0f7b2291e5b200ac8c7c3b92560405160405180910390a45050565b82805461335b90613b02565b90600052602060002090601f01602090048101928261337d57600085556133c3565b82601f1061339657805160ff19168380011785556133c3565b828001600101855582156133c3579182015b828111156133c35782518255916020019190600101906133a8565b506133cf9291506133d3565b5090565b5b808211156133cf57600081556001016133d4565b7fffffffff00000000000000000000000000000000000000000000000000000000811681146120b557600080fd5b60006020828403121561342857600080fd5b8135613433816133e8565b9392505050565b60005b8381101561345557818101518382015260200161343d565b83811115611c205750506000910152565b6000815180845261347e81602086016020860161343a565b601f017fffffffffffffffffffffffffffffffffffffffffffffffffffffffffffffffe0169290920160200192915050565b6020815260006134336020830184613466565b6000602082840312156134d557600080fd5b5035919050565b803573ffffffffffffffffffffffffffffffffffffffff81168114612f9157600080fd5b6000806040838503121561351357600080fd5b61351c836134dc565b946020939093013593505050565b60008060006060848603121561353f57600080fd5b613548846134dc565b9250613556602085016134dc565b9150604084013590509250925092565b60006020828403121561357857600080fd5b613433826134dc565b60e08152600061359460e083018a613466565b82810360208401526135a6818a613466565b905082810360408401526135ba8189613466565b905073ffffffffffffffffffffffffffffffffffffffff8716606084015282810360808401526135ea8187613466565b94151560a0840152505060c0015295945050505050565b7f4e487b7100000000000000000000000000000000000000000000000000000000600052604160045260246000fd5b604051601f82017fffffffffffffffffffffffffffffffffffffffffffffffffffffffffffffffe016810167ffffffffffffffff8111828210171561367757613677613601565b604052919050565b6000602080838503121561369257600080fd5b823567ffffffffffffffff808211156136aa57600080fd5b818501915085601f8301126136be57600080fd5b8135818111156136d0576136d0613601565b8060051b91506136e1848301613630565b81815291830184019184810190888411156136fb57600080fd5b938501935b8385101561371957843582529385019390850190613700565b98975050505050505050565b60006020808301818452808551808352604092508286019150828160051b87010184880160005b83811015613833577fffffffffffffffffffffffffffffffffffffffffffffffffffffffffffffffc0898403018552815160e08151855288820151818a87015261379882870182613466565b91505087820151858203898701526137b08282613466565b915050606080830151868303828801526137ca8382613466565b92505050608073ffffffffffffffffffffffffffffffffffffffff8184015116818701525060a080830151868303828801526138068382613466565b9250505060c080830151925061381f8187018415159052565b50958801959350509086019060010161374c565b509098975050505050505050565b600067ffffffffffffffff83111561385b5761385b613601565b61388c60207fffffffffffffffffffffffffffffffffffffffffffffffffffffffffffffffe0601f86011601613630565b90508281528383830111156138a057600080fd5b828260208301376000602084830101529392505050565b600082601f8301126138c857600080fd5b61343383833560208501613841565b600080600080608085870312156138ed57600080fd5b843567ffffffffffffffff8082111561390557600080fd5b613911888389016138b7565b9550602087013591508082111561392757600080fd5b613933888389016138b7565b9450604087013591508082111561394957600080fd5b613955888389016138b7565b9350606087013591508082111561396b57600080fd5b50613978878288016138b7565b91505092959194509250565b87815260e06020820152600061399d60e0830189613466565b82810360408401526139af8189613466565b905082810360608401526139c38188613466565b905073ffffffffffffffffffffffffffffffffffffffff8616608084015282810360a08401526139f38186613466565b91505082151560c083015298975050505050505050565b80358015158114612f9157600080fd5b60008060408385031215613a2d57600080fd5b613a36836134dc565b9150613a4460208401613a0a565b90509250929050565b60008060008060808587031215613a6357600080fd5b613a6c856134dc565b9350613a7a602086016134dc565b925060408501359150606085013567ffffffffffffffff811115613a9d57600080fd5b8501601f81018713613aae57600080fd5b61397887823560208401613841565b60008060408385031215613ad057600080fd5b613ad9836134dc565b9150613a44602084016134dc565b600060208284031215613af957600080fd5b61343382613a0a565b600181811c90821680613b1657607f821691505b60208210811415613b50577f4e487b7100000000000000000000000000000000000000000000000000000000600052602260045260246000fd5b50919050565b7f4e487b7100000000000000000000000000000000000000000000000000000000600052603260045260246000fd5b7f4e487b7100000000000000000000000000000000000000000000000000000000600052601160045260246000fd5b60007fffffffffffffffffffffffffffffffffffffffffffffffffffffffffffffffff821415613be657613be6613b85565b5060010190565b86815260c060208201526000613c0660c0830188613466565b8281036040840152613c188188613466565b90508281036060840152613c2c8187613466565b905073ffffffffffffffffffffffffffffffffffffffff8516608084015282810360a0840152613c5c8185613466565b9998505050505050505050565b60008151613c7b81856020860161343a565b9290920192915050565b7f2300000000000000000000000000000000000000000000000000000000000000815260008251613cbd81600185016020870161343a565b7f20000000000000000000000000000000000000000000000000000000000000006001939091019283015250600201919050565b7f7b226e616d65223a202200000000000000000000000000000000000000000000815260008751613d2981600a850160208c0161343a565b875190830190613d4081600a840160208c0161343a565b7f222c226465736372697074696f6e223a20220000000000000000000000000000600a92909101918201528651613d7e81601c840160208b0161343a565b7f222c2022696d616765223a202200000000000000000000000000000000000000601c92909101918201528551613dbc816029840160208a0161343a565b7f222c202261747472696275746573223a205b7b2274726169745f74797065223a602992909101918201527f2022417070726f766564222c202276616c7565223a202200000000000000000060498201528451613e2081606084016020890161343a565b613ead613e84613e7e6060848601017f227d2c7b2274726169745f74797065223a20225375626d6974746572222c202281527f76616c7565223a20220000000000000000000000000000000000000000000000602082015260290190565b87613c69565b7f227d5d207d000000000000000000000000000000000000000000000000000000815260050190565b9a9950505050505050505050565b7f646174613a6170706c69636174696f6e2f6a736f6e3b6261736536342c000000815260008251613ef381601d85016020870161343a565b91909101601d0192915050565b600082821015613f1257613f12613b85565b500390565b6000817fffffffffffffffffffffffffffffffffffffffffffffffffffffffffffffffff0483118215151615613f4f57613f4f613b85565b500290565b600181815b80851115613fad57817fffffffffffffffffffffffffffffffffffffffffffffffffffffffffffffffff04821115613f9357613f93613b85565b80851615613fa057918102915b93841c9390800290613f59565b509250929050565b600082613fc4575060016106ed565b81613fd1575060006106ed565b8160018114613fe75760028114613ff15761400d565b60019150506106ed565b60ff84111561400257614002613b85565b50506001821b6106ed565b5060208310610133831016604e8410600b8410161715614030575081810a6106ed565b61403a8383613f54565b807fffffffffffffffffffffffffffffffffffffffffffffffffffffffffffffffff0482111561406c5761406c613b85565b029392505050565b60006134338383613fb5565b7f4e487b7100000000000000000000000000000000000000000000000000000000600052601260045260246000fd5b6000826140be576140be614080565b500490565b600060ff8316806140d6576140d6614080565b8060ff84160491505092915050565b600060ff821660ff84168160ff048111821515161561406c5761406c613b85565b600060ff821660ff84168082101561412057614120613b85565b90039392505050565b6000821982111561413c5761413c613b85565b500190565b60008261415057614150614080565b500690565b60008651614167818460208b0161343a565b86519083019061417b818360208b0161343a565b865191019061418e818360208a0161343a565b85519101906141a181836020890161343a565b84519101906141b481836020880161343a565b01979650505050505050565b600083516141d281846020880161343a565b8351908301906141e681836020880161343a565b01949350505050565b7f646174613a696d6167652f7376672b786d6c3b6261736536342c00000000000081526000825161422781601a85016020870161343a565b91909101601a0192915050565b600073ffffffffffffffffffffffffffffffffffffffff8087168352808616602084015250836040830152608060608301526142736080830184613466565b9695505050505050565b60006020828403121561428f57600080fd5b8151613433816133e8565b600060ff821660ff84168060ff038211156142b7576142b7613b85565b019392505050565b6000875160206142d28285838d0161343a565b8851918401916142e58184848d0161343a565b88519201916142f78184848c0161343a565b87519201916143098184848b0161343a565b865192019161431b8184848a0161343a565b855192019161432d818484890161343a565b91909101999850505050505050505056fe3c616e696d6174652061646469746976653d2773756d27206174747269627574654e616d653d2773746172744f6666736574272066726f6d3d2730252720746f3d27313030252720626567696e3d27307327206475723d273330732720726570656174436f756e743d27696e646566696e69746527202f3e3c2f74657874506174683e3c74657874506174682073746172744f66667365743d272d353025272066696c6c3d27236666662720666f6e742d66616d696c793d27436f7572696572204e65772c206d6f6e6f73706163652720666f6e742d73697a653d27313270782720666f6e742d7765696768743d273530302720786d6c6e733a786c696e6b3d27687474703a2f2f7777772e77332e6f72672f313939392f786c696e6b2720786c696e6b3a687265663d2723746578742d706174682d61273e3c2f703e3c2f626f64793e3c2f666f726569676e4f626a6563743e3c2f673e3c6720786d6c6e733d27687474703a2f2f7777772e77332e6f72672f323030302f73766727207472616e73666f726d3d277472616e736c617465283235203238302920273e3c666f726569676e4f626a6563742077696474683d2733353027206865696768743d27313030273e3c626f647920786d6c6e733d27687474703a2f2f7777772e77332e6f72672f313939392f7868746d6c27207374796c653d276d617267696e3a303b70616464696e673a303b70616464696e672d746f703a3570783b273e3c646976207374796c653d276d617267696e2d626f74746f6d3a313570783b273e3c70207374796c653d27646973706c61793a696e6c696e653b666f6e742d73697a653a313270783b6d617267696e3a303b636f6c6f723a236666663b6261636b67726f756e643a7267626128302c302c302c302e36293b626f726465722d7261646975733a3870783b70616464696e673a37707820313070783b273e3c7370616e207374796c653d27636f6c6f723a72676261283235352c3235352c3235352c302e3629273e417070726f766564203c2f7370616e3e3c2f703e3c2f626f64793e3c2f666f726569676e4f626a6563743e3c2f673e3c67206f7061636974793d273127207472616e73666f726d3d277472616e736c6174652832352039392920273e3c666f726569676e4f626a6563742077696474683d2733363027206865696768743d27323130273e3c626f647920786d6c6e733d27687474703a2f2f7777772e77332e6f72672f313939392f7868746d6c27207374796c653d276d617267696e3a303b70616464696e673a303b273e3c70207374796c653d27666f6e742d73697a653a313670783b6d617267696e3a303b636f6c6f723a236666663b273e3c2f703e3c2f6469763e3c2f626f64793e3c2f666f726569676e4f626a6563743e3c2f673e3c7465787420746578742d72656e646572696e673d276f7074696d697a655370656564273e3c74657874506174682073746172744f66667365743d272d31303025272066696c6c3d27236666662720666f6e742d66616d696c793d27436f7572696572204e65772c206d6f6e6f73706163652720666f6e742d73697a653d27313270782720666f6e742d7765696768743d273530302720786d6c6e733a786c696e6b3d27687474703a2f2f7777772e77332e6f72672f313939392f786c696e6b2720786c696e6b3a687265663d2723746578742d706174682d61273e3c73766720786d6c6e733d27687474703a2f2f7777772e77332e6f72672f323030302f7376672720786d6c6e733a786c696e6b3d27687474703a2f2f7777772e77332e6f72672f313939392f786c696e6b272077696474683d273130323427206865696768743d2731303234272076696577426f783d273020302034303020343030272066696c6c3d276e6f6e65273e3c646566733e3c7061746820786d6c6e733d27687474703a2f2f7777772e77332e6f72672f323030302f737667272069643d27746578742d706174682d612720643d274d20323020313020482033383020412032382032382030203020312033393020323020562033383020412032382032382030203020312033383020333930204820323020412032382032382030203020312031302033383020562032302041203238203238203020302031203230203130207a27202f3e3c636c69705061746820786d6c6e733d27687474703a2f2f7777772e77332e6f72672f323030302f737667272069643d27636f726e657273273e3c726563742077696474683d2734303027206865696768743d27343030272072783d273138272072793d27313827202f3e3c2f636c6970506174683e3c2f646566733e3c67206f7061636974793d273127207472616e73666f726d3d277472616e736c61746528302030292720666f6e742d66616d696c793d27436f7572696572204e65772c206d6f6e6f7370616365273e3c6720786d6c6e733d27687474703a2f2f7777772e77332e6f72672f323030302f7376672720636c69702d706174683d2775726c2823636f726e65727329273e3c7265637420783d27302720793d2730272077696474683d2734303027206865696768743d27343030272072783d273135272072793d273135272066696c6c3d27726762612834302c34302c34302c312927202f3e3c2f673e3c67206f7061636974793d273127207472616e73666f726d3d277472616e736c6174652832352032352920273e3c666f726569676e4f626a6563742077696474683d2733363027206865696768743d273630273e3c626f647920786d6c6e733d27687474703a2f2f7777772e77332e6f72672f313939392f7868746d6c27207374796c653d276d617267696e3a303b70616464696e673a303b273e3c70207374796c653d27666f6e742d73697a653a323470783b6d617267696e3a303b636f6c6f723a236666663b273e3c2f703e3c2f6469763e3c646976207374796c653d276d617267696e2d626f74746f6d3a313270783b273e3c70207374796c653d27646973706c61793a696e6c696e653b666f6e742d73697a653a313270783b6d617267696e3a303b636f6c6f723a236666663b6261636b67726f756e643a7267626128302c302c302c302e36293b626f726465722d7261646975733a3870783b70616464696e673a37707820313070783b273e3c7370616e207374796c653d27636f6c6f723a72676261283235352c3235352c3235352c302e3629273e49646561206279203c2f7370616e3e4142434445464748494a4b4c4d4e4f505152535455565758595a6162636465666768696a6b6c6d6e6f707172737475767778797a303132333435363738392b2f3c616e696d6174652061646469746976653d2773756d27206174747269627574654e616d653d2773746172744f6666736574272066726f6d3d2730252720746f3d27313030252720626567696e3d27307327206475723d273330732720726570656174436f756e743d27696e646566696e69746527202f3e3c2f74657874506174683e3c2f746578743e3c2f673e3c2f7376673e3c2f703e3c2f6469763e3c6469763e3c70207374796c653d27666f6e742d73697a653a313270783b6d617267696e3a303b636f6c6f723a236666663b6261636b67726f756e643a7267626128302c302c302c302e36293b626f726465722d7261646975733a3870783b70616464696e673a37707820313070783b273e3c616e696d6174652061646469746976653d2773756d27206174747269627574654e616d653d2773746172744f6666736574272066726f6d3d2730252720746f3d27313030252720626567696e3d27307327206475723d273330732720726570656174436f756e743d27696e646566696e69746527202f3e3c2f74657874506174683e3c74657874506174682073746172744f66667365743d273025272066696c6c3d27236666662720666f6e742d66616d696c793d27436f7572696572204e65772c206d6f6e6f73706163652720666f6e742d73697a653d27313270782720666f6e742d7765696768743d273530302720786d6c6e733a786c696e6b3d27687474703a2f2f7777772e77332e6f72672f313939392f786c696e6b2720786c696e6b3a687265663d2723746578742d706174682d61273e3c616e696d6174652061646469746976653d2773756d27206174747269627574654e616d653d2773746172744f6666736574272066726f6d3d2730252720746f3d27313030252720626567696e3d27307327206475723d273330732720726570656174436f756e743d27696e646566696e69746527202f3e3c2f74657874506174683e3c74657874506174682073746172744f66667365743d27353025272066696c6c3d27236666662720666f6e742d66616d696c793d27436f7572696572204e65772c206d6f6e6f73706163652720666f6e742d73697a653d27313270782720666f6e742d7765696768743d273530302720786d6c6e733a786c696e6b3d27687474703a2f2f7777772e77332e6f72672f313939392f786c696e6b2720786c696e6b3a687265663d2723746578742d706174682d61273ea2646970667358221220fcc766c05bb8ee1ca4c51a2c0ea3a806a21b7ea514b150b9e57bd3821af4fec464736f6c63430008090033",
  "linkReferences": {},
  "deployedLinkReferences": {}
}