{
  "_format": "hh-sol-artifact-1",
  "contractName": "IdeaSBT",
  "sourceName": "contracts/idea3/IdeaSBT.sol",
  "abi": [
    {
      "inputs": [],
      "stateMutability": "nonpayable",
      "type": "constructor"
    },
    {
      "anonymous": false,
      "inputs": [
        {
          "indexed": true,
          "internalType": "address",
          "name": "owner",
          "type": "address"
        },
        {
          "indexed": true,
          "internalType": "address",
          "name": "approved",
          "type": "address"
        },
        {
          "indexed": true,
          "internalType": "uint256",
          "name": "tokenId",
          "type": "uint256"
        }
      ],
      "name": "Approval",
      "type": "event"
    },
    {
      "anonymous": false,
      "inputs": [
        {
          "indexed": true,
          "internalType": "address",
          "name": "owner",
          "type": "address"
        },
        {
          "indexed": true,
          "internalType": "address",
          "name": "operator",
          "type": "address"
        },
        {
          "indexed": false,
          "internalType": "bool",
          "name": "approved",
          "type": "bool"
        }
      ],
      "name": "ApprovalForAll",
      "type": "event"
    },
    {
      "anonymous": false,
      "inputs": [
        {
          "indexed": false,
          "internalType": "uint256",
          "name": "id",
          "type": "uint256"
        }
      ],
      "name": "IdeaApproved",
      "type": "event"
    },
    {
      "anonymous": false,
      "inputs": [
        {
          "indexed": false,
          "internalType": "uint256",
          "name": "id",
          "type": "uint256"
        },
        {
          "indexed": false,
          "internalType": "string",
          "name": "name",
          "type": "string"
        },
        {
          "indexed": false,
          "internalType": "string",
          "name": "content",
          "type": "string"
        },
        {
          "indexed": false,
          "internalType": "address",
          "name": "submitter",
          "type": "address"
        },
        {
          "indexed": false,
          "internalType": "string",
          "name": "submitterName",
          "type": "string"
        }
      ],
      "name": "IdeaSubmitted",
      "type": "event"
    },
    {
      "anonymous": false,
      "inputs": [
        {
          "indexed": false,
          "internalType": "uint256",
          "name": "id",
          "type": "uint256"
        }
      ],
      "name": "IdeaUnapproved",
      "type": "event"
    },
    {
      "anonymous": false,
      "inputs": [
        {
          "indexed": true,
          "internalType": "address",
          "name": "previousOwner",
          "type": "address"
        },
        {
          "indexed": true,
          "internalType": "address",
          "name": "newOwner",
          "type": "address"
        }
      ],
      "name": "OwnershipTransferred",
      "type": "event"
    },
    {
      "anonymous": false,
      "inputs": [
        {
          "indexed": true,
          "internalType": "address",
          "name": "from",
          "type": "address"
        },
        {
          "indexed": true,
          "internalType": "address",
          "name": "to",
          "type": "address"
        },
        {
          "indexed": true,
          "internalType": "uint256",
          "name": "tokenId",
          "type": "uint256"
        }
      ],
      "name": "Transfer",
      "type": "event"
    },
    {
      "inputs": [],
      "name": "CANNOT_TRANSFER_TO_ZERO_ADDRESS",
      "outputs": [
        {
          "internalType": "string",
          "name": "",
          "type": "string"
        }
      ],
      "stateMutability": "view",
      "type": "function"
    },
    {
      "inputs": [],
      "name": "NOT_CURRENT_OWNER",
      "outputs": [
        {
          "internalType": "string",
          "name": "",
          "type": "string"
        }
      ],
      "stateMutability": "view",
      "type": "function"
    },
    {
      "inputs": [
        {
          "internalType": "address",
          "name": "to",
          "type": "address"
        },
        {
          "internalType": "uint256",
          "name": "tokenId",
          "type": "uint256"
        }
      ],
      "name": "approve",
      "outputs": [],
      "stateMutability": "nonpayable",
      "type": "function"
    },
    {
      "inputs": [
        {
          "internalType": "uint256",
          "name": "id",
          "type": "uint256"
        }
      ],
      "name": "approveIdea",
      "outputs": [
        {
          "internalType": "address",
          "name": "",
          "type": "address"
        }
      ],
      "stateMutability": "nonpayable",
      "type": "function"
    },
    {
      "inputs": [
        {
          "internalType": "address",
          "name": "owner",
          "type": "address"
        }
      ],
      "name": "balanceOf",
      "outputs": [
        {
          "internalType": "uint256",
          "name": "",
          "type": "uint256"
        }
      ],
      "stateMutability": "view",
      "type": "function"
    },
    {
      "inputs": [
        {
          "internalType": "uint256",
          "name": "tokenId",
          "type": "uint256"
        }
      ],
      "name": "getApproved",
      "outputs": [
        {
          "internalType": "address",
          "name": "",
          "type": "address"
        }
      ],
      "stateMutability": "view",
      "type": "function"
    },
    {
      "inputs": [
        {
          "internalType": "uint256",
          "name": "id",
          "type": "uint256"
        }
      ],
      "name": "getIdea",
      "outputs": [
        {
          "internalType": "string",
          "name": "",
          "type": "string"
        },
        {
          "internalType": "string",
          "name": "",
          "type": "string"
        },
        {
          "internalType": "address",
          "name": "",
          "type": "address"
        },
        {
          "internalType": "string",
          "name": "",
          "type": "string"
        },
        {
          "internalType": "bool",
          "name": "",
          "type": "bool"
        }
      ],
      "stateMutability": "view",
      "type": "function"
    },
    {
      "inputs": [
        {
          "internalType": "uint256[]",
          "name": "_ideaIds",
          "type": "uint256[]"
        }
      ],
      "name": "getIdeas",
      "outputs": [
        {
          "components": [
            {
              "internalType": "uint256",
              "name": "id",
              "type": "uint256"
            },
            {
              "internalType": "string",
              "name": "title",
              "type": "string"
            },
            {
              "internalType": "string",
              "name": "content",
              "type": "string"
            },
            {
              "internalType": "address",
              "name": "submitter",
              "type": "address"
            },
            {
              "internalType": "string",
              "name": "submitterName",
              "type": "string"
            },
            {
              "internalType": "bool",
              "name": "approved",
              "type": "bool"
            }
          ],
          "internalType": "struct IdeaSBT.IdeaStruct[]",
          "name": "",
          "type": "tuple[]"
        }
      ],
      "stateMutability": "view",
      "type": "function"
    },
    {
      "inputs": [
        {
          "internalType": "uint256",
          "name": "tokenId",
          "type": "uint256"
        }
      ],
      "name": "getTokenURI",
      "outputs": [
        {
          "internalType": "string",
          "name": "",
          "type": "string"
        }
      ],
      "stateMutability": "view",
      "type": "function"
    },
    {
      "inputs": [],
      "name": "ideaCount",
      "outputs": [
        {
          "internalType": "uint256",
          "name": "",
          "type": "uint256"
        }
      ],
      "stateMutability": "view",
      "type": "function"
    },
    {
      "inputs": [
        {
          "internalType": "uint256",
          "name": "",
          "type": "uint256"
        }
      ],
      "name": "ideas",
      "outputs": [
        {
          "internalType": "uint256",
          "name": "id",
          "type": "uint256"
        },
        {
          "internalType": "string",
          "name": "title",
          "type": "string"
        },
        {
          "internalType": "string",
          "name": "content",
          "type": "string"
        },
        {
          "internalType": "address",
          "name": "submitter",
          "type": "address"
        },
        {
          "internalType": "string",
          "name": "submitterName",
          "type": "string"
        },
        {
          "internalType": "bool",
          "name": "approved",
          "type": "bool"
        }
      ],
      "stateMutability": "view",
      "type": "function"
    },
    {
      "inputs": [
        {
          "internalType": "address",
          "name": "owner",
          "type": "address"
        },
        {
          "internalType": "address",
          "name": "operator",
          "type": "address"
        }
      ],
      "name": "isApprovedForAll",
      "outputs": [
        {
          "internalType": "bool",
          "name": "",
          "type": "bool"
        }
      ],
      "stateMutability": "view",
      "type": "function"
    },
    {
      "inputs": [],
      "name": "name",
      "outputs": [
        {
          "internalType": "string",
          "name": "",
          "type": "string"
        }
      ],
      "stateMutability": "view",
      "type": "function"
    },
    {
      "inputs": [],
      "name": "owner",
      "outputs": [
        {
          "internalType": "address",
          "name": "",
          "type": "address"
        }
      ],
      "stateMutability": "view",
      "type": "function"
    },
    {
      "inputs": [
        {
          "internalType": "uint256",
          "name": "tokenId",
          "type": "uint256"
        }
      ],
      "name": "ownerOf",
      "outputs": [
        {
          "internalType": "address",
          "name": "",
          "type": "address"
        }
      ],
      "stateMutability": "view",
      "type": "function"
    },
    {
      "inputs": [
        {
          "internalType": "address",
          "name": "from",
          "type": "address"
        },
        {
          "internalType": "address",
          "name": "to",
          "type": "address"
        },
        {
          "internalType": "uint256",
          "name": "tokenId",
          "type": "uint256"
        }
      ],
      "name": "safeTransferFrom",
      "outputs": [],
      "stateMutability": "nonpayable",
      "type": "function"
    },
    {
      "inputs": [
        {
          "internalType": "address",
          "name": "from",
          "type": "address"
        },
        {
          "internalType": "address",
          "name": "to",
          "type": "address"
        },
        {
          "internalType": "uint256",
          "name": "tokenId",
          "type": "uint256"
        },
        {
          "internalType": "bytes",
          "name": "data",
          "type": "bytes"
        }
      ],
      "name": "safeTransferFrom",
      "outputs": [],
      "stateMutability": "nonpayable",
      "type": "function"
    },
    {
      "inputs": [
        {
          "internalType": "address",
          "name": "operator",
          "type": "address"
        },
        {
          "internalType": "bool",
          "name": "approved",
          "type": "bool"
        }
      ],
      "name": "setApprovalForAll",
      "outputs": [],
      "stateMutability": "nonpayable",
      "type": "function"
    },
    {
      "inputs": [
        {
          "internalType": "address",
          "name": "approver",
          "type": "address"
        }
      ],
      "name": "setApprover",
      "outputs": [],
      "stateMutability": "nonpayable",
      "type": "function"
    },
    {
      "inputs": [
        {
          "internalType": "string",
          "name": "title",
          "type": "string"
        },
        {
          "internalType": "string",
          "name": "content",
          "type": "string"
        },
        {
          "internalType": "string",
          "name": "submitterName",
          "type": "string"
        }
      ],
      "name": "submitIdea",
      "outputs": [],
      "stateMutability": "nonpayable",
      "type": "function"
    },
    {
      "inputs": [
        {
          "internalType": "bytes4",
          "name": "interfaceId",
          "type": "bytes4"
        }
      ],
      "name": "supportsInterface",
      "outputs": [
        {
          "internalType": "bool",
          "name": "",
          "type": "bool"
        }
      ],
      "stateMutability": "view",
      "type": "function"
    },
    {
      "inputs": [],
      "name": "symbol",
      "outputs": [
        {
          "internalType": "string",
          "name": "",
          "type": "string"
        }
      ],
      "stateMutability": "view",
      "type": "function"
    },
    {
      "inputs": [
        {
          "internalType": "uint256",
          "name": "tokenId",
          "type": "uint256"
        }
      ],
      "name": "tokenURI",
      "outputs": [
        {
          "internalType": "string",
          "name": "",
          "type": "string"
        }
      ],
      "stateMutability": "view",
      "type": "function"
    },
    {
      "inputs": [
        {
          "internalType": "address",
          "name": "from",
          "type": "address"
        },
        {
          "internalType": "address",
          "name": "to",
          "type": "address"
        },
        {
          "internalType": "uint256",
          "name": "tokenId",
          "type": "uint256"
        }
      ],
      "name": "transferFrom",
      "outputs": [],
      "stateMutability": "nonpayable",
      "type": "function"
    },
    {
      "inputs": [
        {
          "internalType": "address",
          "name": "_newOwner",
          "type": "address"
        }
      ],
      "name": "transferOwnership",
      "outputs": [],
      "stateMutability": "nonpayable",
      "type": "function"
    },
    {
      "inputs": [
        {
          "internalType": "uint256",
          "name": "id",
          "type": "uint256"
        }
      ],
      "name": "unapproveIdea",
      "outputs": [],
      "stateMutability": "nonpayable",
      "type": "function"
    }
  ],
  "bytecode": "0x60806040523480156200001157600080fd5b50604080518082018252600880825267125919584cd4d09560c21b602080840182815285518087019096529285528401528151919291620000559160009162000086565b5080516200006b90600190602084019062000086565b5050600680546001600160a01b031916331790555062000169565b82805462000094906200012c565b90600052602060002090601f016020900481019282620000b8576000855562000103565b82601f10620000d357805160ff191683800117855562000103565b8280016001018555821562000103579182015b8281111562000103578251825591602001919060010190620000e6565b506200011192915062000115565b5090565b5b8082111562000111576000815560010162000116565b600181811c908216806200014157607f821691505b602082108114156200016357634e487b7160e01b600052602260045260246000fd5b50919050565b61533480620001796000396000f3fe608060405234801561001057600080fd5b50600436106101ae5760003560e01c80636352211e116100ee578063a22cb46511610097578063cb66f55511610071578063cb66f555146103df578063e985e9c5146103f2578063f2fde38b1461043b578063f3fe3bc31461044e57600080fd5b8063a22cb465146103b9578063b88d4fde146103cc578063c87b56dd146102a057600080fd5b80638da5cb5b116100c85780638da5cb5b1461036c57806395b538371461038c57806395d89b41146103b157600080fd5b80636352211e1461030a57806370a082311461031d578063860d248a1461033057600080fd5b806323b872dd1161015b5780633bb3a24d116101355780633bb3a24d146102a057806342842e0e146102b357806344de6b2f146102c65780635986331c146102ea57600080fd5b806323b872dd146102675780633156560e1461027a578063350ff3081461028d57600080fd5b8063081812fc1161018c578063081812fc14610205578063095ea7b31461023d5780630b5f20bd1461025057600080fd5b80630137790e146101b357806301ffc9a7146101c857806306fdde03146101f0575b600080fd5b6101c66101c1366004612d31565b61048a565b005b6101db6101d6366004612de7565b610605565b60405190151581526020015b60405180910390f35b6101f86106ea565b6040516101e79190612e7a565b610218610213366004612e8d565b61077c565b60405173ffffffffffffffffffffffffffffffffffffffff90911681526020016101e7565b6101c661024b366004612eca565b6107b0565b61025960095481565b6040519081526020016101e7565b6101c6610275366004612ef4565b610817565b6101c6610288366004612f30565b610879565b61021861029b366004612e8d565b610947565b6101f86102ae366004612e8d565b610ae7565b6101c66102c1366004612ef4565b610d90565b6102d96102d4366004612e8d565b610db0565b6040516101e7959493929190612f4b565b6102fd6102f8366004612fb5565b610fb6565b6040516101e7919061305b565b610218610318366004612e8d565b6112ca565b61025961032b366004612f30565b611356565b6101f86040518060400160405280600681526020017f303138303032000000000000000000000000000000000000000000000000000081525081565b6006546102189073ffffffffffffffffffffffffffffffffffffffff1681565b61039f61039a366004612e8d565b611424565b6040516101e796959493929190613153565b6101f8611610565b6101c66103c73660046131c4565b61161f565b6101c66103da366004613200565b61162e565b6101c66103ed366004612e8d565b6116d6565b6101db61040036600461327c565b73ffffffffffffffffffffffffffffffffffffffff918216600090815260056020908152604080832093909416825291909152205460ff1690565b6101c6610449366004612f30565b611871565b6101f86040518060400160405280600681526020017f303138303031000000000000000000000000000000000000000000000000000081525081565b6009546040805160c081018252828152602080820187815282840187905233606084015260808301869052600060a08401819052858152600783529390932082518155925180519293926104e49260018501920190612b7d565b5060408201518051610500916002840191602090910190612b7d565b5060608201516003820180547fffffffffffffffffffffffff00000000000000000000000000000000000000001673ffffffffffffffffffffffffffffffffffffffff90921691909117905560808201518051610567916004840191602090910190612b7d565b5060a09190910151600590910180547fffffffffffffffffffffffffffffffffffffffffffffffffffffffffffffff00169115159190911790556105ab3382611a09565b600980549060006105bb836132de565b91905055507fdcdddc90f308412a2d2797e80173b33341d4f53d309c8718c9b34bcd115accfa81858533866040516105f7959493929190613317565b60405180910390a150505050565b60007fffffffff0000000000000000000000000000000000000000000000000000000082167f80ac58cd00000000000000000000000000000000000000000000000000000000148061069857507fffffffff0000000000000000000000000000000000000000000000000000000082167f5b5e139f00000000000000000000000000000000000000000000000000000000145b806106e457507f01ffc9a7000000000000000000000000000000000000000000000000000000007fffffffff000000000000000000000000000000000000000000000000000000008316145b92915050565b6060600080546106f990613372565b80601f016020809104026020016040519081016040528092919081815260200182805461072590613372565b80156107725780601f1061074757610100808354040283529160200191610772565b820191906000526020600020905b81548152906001019060200180831161075557829003601f168201915b5050505050905090565b600061078782611a23565b5060009081526004602052604090205473ffffffffffffffffffffffffffffffffffffffff1690565b6040517f08c379a000000000000000000000000000000000000000000000000000000000815260206004820152600d60248201527f63616e6f7420617070726f76650000000000000000000000000000000000000060448201526064015b60405180910390fd5b6040517f08c379a000000000000000000000000000000000000000000000000000000000815260206004820152600e60248201527f63616e6f74207472616e73666572000000000000000000000000000000000000604482015260640161080e565b60068054604080518082019091529182527f3031383030310000000000000000000000000000000000000000000000000000602083015273ffffffffffffffffffffffffffffffffffffffff1633146108ff576040517f08c379a000000000000000000000000000000000000000000000000000000000815260040161080e9190612e7a565b50600880547fffffffffffffffffffffffff00000000000000000000000000000000000000001673ffffffffffffffffffffffffffffffffffffffff92909216919091179055565b60085460009073ffffffffffffffffffffffffffffffffffffffff1633146109cb576040517f08c379a000000000000000000000000000000000000000000000000000000000815260206004820152601f60248201527f4f6e6c7920617070726f7665722063616e20617070726f766520696465617300604482015260640161080e565b60008281526007602052604090206005015460ff1615610a47576040517f08c379a000000000000000000000000000000000000000000000000000000000815260206004820152601560248201527f4964656120616c726561647920617070726f7665640000000000000000000000604482015260640161080e565b6000828152600760205260409081902060050180547fffffffffffffffffffffffffffffffffffffffffffffffffffffffffffffff00166001179055517febb90caf7614b83edad4bf188ea9f29fcef830109fba086509855d84eb2c3e7190610ab39084815260200190565b60405180910390a15060009081526007602052604090206003015473ffffffffffffffffffffffffffffffffffffffff1690565b60008181526002602052604090205460609073ffffffffffffffffffffffffffffffffffffffff16610b75576040517f08c379a000000000000000000000000000000000000000000000000000000000815260206004820152601560248201527f746f6b656e496420646f65736e27742065786973740000000000000000000000604482015260640161080e565b6106e4600760008481526020019081526020016000206040518060c001604052908160008201548152602001600182018054610bb090613372565b80601f0160208091040260200160405190810160405280929190818152602001828054610bdc90613372565b8015610c295780601f10610bfe57610100808354040283529160200191610c29565b820191906000526020600020905b815481529060010190602001808311610c0c57829003601f168201915b50505050508152602001600282018054610c4290613372565b80601f0160208091040260200160405190810160405280929190818152602001828054610c6e90613372565b8015610cbb5780601f10610c9057610100808354040283529160200191610cbb565b820191906000526020600020905b815481529060010190602001808311610c9e57829003601f168201915b5050509183525050600382015473ffffffffffffffffffffffffffffffffffffffff166020820152600482018054604090920191610cf890613372565b80601f0160208091040260200160405190810160405280929190818152602001828054610d2490613372565b8015610d715780601f10610d4657610100808354040283529160200191610d71565b820191906000526020600020905b815481529060010190602001808311610d5457829003601f168201915b50505091835250506005919091015460ff161515602090910152611ab1565b610dab8383836040518060200160405280600081525061162e565b505050565b600081815260076020526040812060038101546005820154600183018054606095869590948694869493600284019373ffffffffffffffffffffffffffffffffffffffff909316926004019160ff16908590610e0b90613372565b80601f0160208091040260200160405190810160405280929190818152602001828054610e3790613372565b8015610e845780601f10610e5957610100808354040283529160200191610e84565b820191906000526020600020905b815481529060010190602001808311610e6757829003601f168201915b50505050509450838054610e9790613372565b80601f0160208091040260200160405190810160405280929190818152602001828054610ec390613372565b8015610f105780601f10610ee557610100808354040283529160200191610f10565b820191906000526020600020905b815481529060010190602001808311610ef357829003601f168201915b50505050509350818054610f2390613372565b80601f0160208091040260200160405190810160405280929190818152602001828054610f4f90613372565b8015610f9c5780601f10610f7157610100808354040283529160200191610f9c565b820191906000526020600020905b815481529060010190602001808311610f7f57829003601f168201915b505050505091509450945094509450945091939590929450565b60606000825167ffffffffffffffff811115610fd457610fd4612c16565b60405190808252806020026020018201604052801561105657816020015b6110436040518060c00160405280600081526020016060815260200160608152602001600073ffffffffffffffffffffffffffffffffffffffff168152602001606081526020016000151581525090565b815260200190600190039081610ff25790505b50905060005b83518110156112c3576007600085838151811061107b5761107b6133c6565b602002602001015181526020019081526020016000206040518060c0016040529081600082015481526020016001820180546110b690613372565b80601f01602080910402602001604051908101604052809291908181526020018280546110e290613372565b801561112f5780601f106111045761010080835404028352916020019161112f565b820191906000526020600020905b81548152906001019060200180831161111257829003601f168201915b5050505050815260200160028201805461114890613372565b80601f016020809104026020016040519081016040528092919081815260200182805461117490613372565b80156111c15780601f10611196576101008083540402835291602001916111c1565b820191906000526020600020905b8154815290600101906020018083116111a457829003601f168201915b5050509183525050600382015473ffffffffffffffffffffffffffffffffffffffff1660208201526004820180546040909201916111fe90613372565b80601f016020809104026020016040519081016040528092919081815260200182805461122a90613372565b80156112775780601f1061124c57610100808354040283529160200191611277565b820191906000526020600020905b81548152906001019060200180831161125a57829003601f168201915b50505091835250506005919091015460ff16151560209091015282518390839081106112a5576112a56133c6565b602002602001018190525080806112bb906132de565b91505061105c565b5092915050565b60008181526002602052604081205473ffffffffffffffffffffffffffffffffffffffff16806106e4576040517f08c379a000000000000000000000000000000000000000000000000000000000815260206004820152601860248201527f4552433732313a20696e76616c696420746f6b656e2049440000000000000000604482015260640161080e565b600073ffffffffffffffffffffffffffffffffffffffff82166113fb576040517f08c379a000000000000000000000000000000000000000000000000000000000815260206004820152602960248201527f4552433732313a2061646472657373207a65726f206973206e6f74206120766160448201527f6c6964206f776e65720000000000000000000000000000000000000000000000606482015260840161080e565b5073ffffffffffffffffffffffffffffffffffffffff1660009081526003602052604090205490565b6007602052600090815260409020805460018201805491929161144690613372565b80601f016020809104026020016040519081016040528092919081815260200182805461147290613372565b80156114bf5780601f10611494576101008083540402835291602001916114bf565b820191906000526020600020905b8154815290600101906020018083116114a257829003601f168201915b5050505050908060020180546114d490613372565b80601f016020809104026020016040519081016040528092919081815260200182805461150090613372565b801561154d5780601f106115225761010080835404028352916020019161154d565b820191906000526020600020905b81548152906001019060200180831161153057829003601f168201915b5050506003840154600485018054949573ffffffffffffffffffffffffffffffffffffffff90921694919350915061158490613372565b80601f01602080910402602001604051908101604052809291908181526020018280546115b090613372565b80156115fd5780601f106115d2576101008083540402835291602001916115fd565b820191906000526020600020905b8154815290600101906020018083116115e057829003601f168201915b5050506005909301549192505060ff1686565b6060600180546106f990613372565b61162a338383611be0565b5050565b6116383383611d0e565b6116c4576040517f08c379a000000000000000000000000000000000000000000000000000000000815260206004820152602e60248201527f4552433732313a2063616c6c6572206973206e6f7420746f6b656e206f776e6560448201527f72206e6f7220617070726f766564000000000000000000000000000000000000606482015260840161080e565b6116d084848484611dce565b50505050565b60085473ffffffffffffffffffffffffffffffffffffffff16331461177d576040517f08c379a000000000000000000000000000000000000000000000000000000000815260206004820152602160248201527f4f6e6c7920617070726f7665722063616e20756e617070726f7665206964656160448201527f7300000000000000000000000000000000000000000000000000000000000000606482015260840161080e565b60008181526007602052604090206005015460ff1615156001146117fd576040517f08c379a000000000000000000000000000000000000000000000000000000000815260206004820152601760248201527f4964656120616c726561647920756e617070726f766564000000000000000000604482015260640161080e565b6000818152600760205260409081902060050180547fffffffffffffffffffffffffffffffffffffffffffffffffffffffffffffff00169055517f230760c80fef3608425b1f95d72596eeb4a151ec85cc85e682558411eeaf4b66906118669083815260200190565b60405180910390a150565b60068054604080518082019091529182527f3031383030310000000000000000000000000000000000000000000000000000602083015273ffffffffffffffffffffffffffffffffffffffff1633146118f7576040517f08c379a000000000000000000000000000000000000000000000000000000000815260040161080e9190612e7a565b5060408051808201909152600681527f3031383030320000000000000000000000000000000000000000000000000000602082015273ffffffffffffffffffffffffffffffffffffffff821661197a576040517f08c379a000000000000000000000000000000000000000000000000000000000815260040161080e9190612e7a565b5060065460405173ffffffffffffffffffffffffffffffffffffffff8084169216907f8be0079c531659141344cd1fd0a4f28419497f9722a3daafe3b4186f6b6457e090600090a3600680547fffffffffffffffffffffffff00000000000000000000000000000000000000001673ffffffffffffffffffffffffffffffffffffffff92909216919091179055565b61162a828260405180602001604052806000815250611e71565b60008181526002602052604090205473ffffffffffffffffffffffffffffffffffffffff16611aae576040517f08c379a000000000000000000000000000000000000000000000000000000000815260206004820152601860248201527f4552433732313a20696e76616c696420746f6b656e2049440000000000000000604482015260640161080e565b50565b60606000611ac28360600151611f14565b90506000611ad38460000151612091565b604051602001611ae39190613411565b60405160208183030381529060405290506000611b018583856121c3565b9050611bb78286602001518760400151848960a00151611b56576040518060400160405280600281526020017f4e6f000000000000000000000000000000000000000000000000000000000000815250611b8d565b6040518060400160405280600381526020017f59657300000000000000000000000000000000000000000000000000000000008152505b88604051602001611ba39695949392919061347d565b6040516020818303038152906040526122f9565b604051602001611bc79190613647565b6040516020818303038152906040529350505050919050565b8173ffffffffffffffffffffffffffffffffffffffff168373ffffffffffffffffffffffffffffffffffffffff161415611c76576040517f08c379a000000000000000000000000000000000000000000000000000000000815260206004820152601960248201527f4552433732313a20617070726f766520746f2063616c6c657200000000000000604482015260640161080e565b73ffffffffffffffffffffffffffffffffffffffff83811660008181526005602090815260408083209487168084529482529182902080547fffffffffffffffffffffffffffffffffffffffffffffffffffffffffffffff001686151590811790915591519182527f17307eab39ab6107e8899845ad3d59bd9653f200f220920489ca2b5937696c31910160405180910390a3505050565b600080611d1a836112ca565b90508073ffffffffffffffffffffffffffffffffffffffff168473ffffffffffffffffffffffffffffffffffffffff161480611d88575073ffffffffffffffffffffffffffffffffffffffff80821660009081526005602090815260408083209388168352929052205460ff165b80611dc657508373ffffffffffffffffffffffffffffffffffffffff16611dae8461077c565b73ffffffffffffffffffffffffffffffffffffffff16145b949350505050565b611dd984848461244d565b611de5848484846126b4565b6116d0576040517f08c379a000000000000000000000000000000000000000000000000000000000815260206004820152603260248201527f4552433732313a207472616e7366657220746f206e6f6e20455243373231526560448201527f63656976657220696d706c656d656e7465720000000000000000000000000000606482015260840161080e565b611e7b83836128b3565b611e8860008484846126b4565b610dab576040517f08c379a000000000000000000000000000000000000000000000000000000000815260206004820152603260248201527f4552433732313a207472616e7366657220746f206e6f6e20455243373231526560448201527f63656976657220696d706c656d656e7465720000000000000000000000000000606482015260840161080e565b60408051602880825260608281019093526000919060208201818036833701905050905060005b60148110156112c3576000611f5182601361368c565b611f5c9060086136a3565b611f67906002613800565b611f879073ffffffffffffffffffffffffffffffffffffffff871661383b565b60f81b9050600060108260f81c611f9e919061384f565b60f81b905060008160f81c6010611fb59190613871565b8360f81c611fc39190613892565b60f81b9050611fd182612a75565b85611fdd8660026136a3565b81518110611fed57611fed6133c6565b60200101907effffffffffffffffffffffffffffffffffffffffffffffffffffffffffffff1916908160001a90535061202581612a75565b856120318660026136a3565b61203c9060016138b5565b8151811061204c5761204c6133c6565b60200101907effffffffffffffffffffffffffffffffffffffffffffffffffffffffffffff1916908160001a9053505050508080612089906132de565b915050611f3b565b6060816120d157505060408051808201909152600181527f3000000000000000000000000000000000000000000000000000000000000000602082015290565b8160005b81156120fb57806120e5816132de565b91506120f49050600a8361383b565b91506120d5565b60008167ffffffffffffffff81111561211657612116612c16565b6040519080825280601f01601f191660200182016040528015612140576020820181803683370190505b5090505b8415611dc65761215560018361368c565b9150612162600a866138cd565b61216d9060306138b5565b60f81b818381518110612182576121826133c6565b60200101907effffffffffffffffffffffffffffffffffffffffffffffffffffffffffffff1916908160001a9053506121bc600a8661383b565b9450612144565b606060006121d083612ab0565b90506122d084866020015187604001516040516020016121f2939291906138e1565b6040516020818303038152906040528660a00151612245576040518060400160405280600281526020017f4e6f00000000000000000000000000000000000000000000000000000000000081525061227c565b6040518060400160405280600381526020017f59657300000000000000000000000000000000000000000000000000000000008152505b87608001518460405160200161229493929190614a8f565b604080517fffffffffffffffffffffffffffffffffffffffffffffffffffffffffffffffe081840301815290829052611ba39291602001614dd2565b6040516020016122e09190614e01565b6040516020818303038152906040529150509392505050565b606081516000141561231957505060408051602081019091526000815290565b60006040518060600160405280604081526020016152bf604091399050600060038451600261234891906138b5565b612352919061383b565b61235d9060046136a3565b67ffffffffffffffff81111561237557612375612c16565b6040519080825280601f01601f19166020018201604052801561239f576020820181803683370190505b509050600182016020820185865187015b8082101561240b576003820191508151603f8160121c168501518453600184019350603f81600c1c168501518453600184019350603f8160061c168501518453600184019350603f81168501518453506001830192506123b0565b5050600386510660018114612427576002811461243a57612442565b603d6001830353603d6002830353612442565b603d60018303535b509195945050505050565b8273ffffffffffffffffffffffffffffffffffffffff1661246d826112ca565b73ffffffffffffffffffffffffffffffffffffffff1614612510576040517f08c379a000000000000000000000000000000000000000000000000000000000815260206004820152602560248201527f4552433732313a207472616e736665722066726f6d20696e636f72726563742060448201527f6f776e6572000000000000000000000000000000000000000000000000000000606482015260840161080e565b73ffffffffffffffffffffffffffffffffffffffff82166125b2576040517f08c379a0000000000000000000000000000000000000000000000000000000008152602060048201526024808201527f4552433732313a207472616e7366657220746f20746865207a65726f2061646460448201527f7265737300000000000000000000000000000000000000000000000000000000606482015260840161080e565b6125bd600082612add565b73ffffffffffffffffffffffffffffffffffffffff831660009081526003602052604081208054600192906125f390849061368c565b909155505073ffffffffffffffffffffffffffffffffffffffff8216600090815260036020526040812080546001929061262e9084906138b5565b909155505060008181526002602052604080822080547fffffffffffffffffffffffff00000000000000000000000000000000000000001673ffffffffffffffffffffffffffffffffffffffff86811691821790925591518493918716917fddf252ad1be2c89b69c2b068fc378daa952ba7f163c4a11628f55a4df523b3ef91a4505050565b600073ffffffffffffffffffffffffffffffffffffffff84163b156128a8576040517f150b7a0200000000000000000000000000000000000000000000000000000000815273ffffffffffffffffffffffffffffffffffffffff85169063150b7a029061272b903390899088908890600401614e46565b602060405180830381600087803b15801561274557600080fd5b505af1925050508015612793575060408051601f3d9081017fffffffffffffffffffffffffffffffffffffffffffffffffffffffffffffffe016820190925261279091810190614e8f565b60015b61285d573d8080156127c1576040519150601f19603f3d011682016040523d82523d6000602084013e6127c6565b606091505b508051612855576040517f08c379a000000000000000000000000000000000000000000000000000000000815260206004820152603260248201527f4552433732313a207472616e7366657220746f206e6f6e20455243373231526560448201527f63656976657220696d706c656d656e7465720000000000000000000000000000606482015260840161080e565b805181602001fd5b7fffffffff00000000000000000000000000000000000000000000000000000000167f150b7a0200000000000000000000000000000000000000000000000000000000149050611dc6565b506001949350505050565b73ffffffffffffffffffffffffffffffffffffffff8216612930576040517f08c379a000000000000000000000000000000000000000000000000000000000815260206004820181905260248201527f4552433732313a206d696e7420746f20746865207a65726f2061646472657373604482015260640161080e565b60008181526002602052604090205473ffffffffffffffffffffffffffffffffffffffff16156129bc576040517f08c379a000000000000000000000000000000000000000000000000000000000815260206004820152601c60248201527f4552433732313a20746f6b656e20616c7265616479206d696e74656400000000604482015260640161080e565b73ffffffffffffffffffffffffffffffffffffffff821660009081526003602052604081208054600192906129f29084906138b5565b909155505060008181526002602052604080822080547fffffffffffffffffffffffff00000000000000000000000000000000000000001673ffffffffffffffffffffffffffffffffffffffff861690811790915590518392907fddf252ad1be2c89b69c2b068fc378daa952ba7f163c4a11628f55a4df523b3ef908290a45050565b6000600a60f883901c1015612a9c57612a9360f883901c6030614eac565b60f81b92915050565b612a9360f883901c6057614eac565b919050565b6060818283604051602001612ac793929190614ed1565b6040516020818303038152906040529050919050565b600081815260046020526040902080547fffffffffffffffffffffffff00000000000000000000000000000000000000001673ffffffffffffffffffffffffffffffffffffffff84169081179091558190612b37826112ca565b73ffffffffffffffffffffffffffffffffffffffff167f8c5be1e5ebec7d5bd14f71427d1e84f3dd0314c0f7b2291e5b200ac8c7c3b92560405160405180910390a45050565b828054612b8990613372565b90600052602060002090601f016020900481019282612bab5760008555612bf1565b82601f10612bc457805160ff1916838001178555612bf1565b82800160010185558215612bf1579182015b82811115612bf1578251825591602001919060010190612bd6565b50612bfd929150612c01565b5090565b5b80821115612bfd5760008155600101612c02565b7f4e487b7100000000000000000000000000000000000000000000000000000000600052604160045260246000fd5b604051601f82017fffffffffffffffffffffffffffffffffffffffffffffffffffffffffffffffe016810167ffffffffffffffff81118282101715612c8c57612c8c612c16565b604052919050565b600067ffffffffffffffff831115612cae57612cae612c16565b612cdf60207fffffffffffffffffffffffffffffffffffffffffffffffffffffffffffffffe0601f86011601612c45565b9050828152838383011115612cf357600080fd5b828260208301376000602084830101529392505050565b600082601f830112612d1b57600080fd5b612d2a83833560208501612c94565b9392505050565b600080600060608486031215612d4657600080fd5b833567ffffffffffffffff80821115612d5e57600080fd5b612d6a87838801612d0a565b94506020860135915080821115612d8057600080fd5b612d8c87838801612d0a565b93506040860135915080821115612da257600080fd5b50612daf86828701612d0a565b9150509250925092565b7fffffffff0000000000000000000000000000000000000000000000000000000081168114611aae57600080fd5b600060208284031215612df957600080fd5b8135612d2a81612db9565b60005b83811015612e1f578181015183820152602001612e07565b838111156116d05750506000910152565b60008151808452612e48816020860160208601612e04565b601f017fffffffffffffffffffffffffffffffffffffffffffffffffffffffffffffffe0169290920160200192915050565b602081526000612d2a6020830184612e30565b600060208284031215612e9f57600080fd5b5035919050565b803573ffffffffffffffffffffffffffffffffffffffff81168114612aab57600080fd5b60008060408385031215612edd57600080fd5b612ee683612ea6565b946020939093013593505050565b600080600060608486031215612f0957600080fd5b612f1284612ea6565b9250612f2060208501612ea6565b9150604084013590509250925092565b600060208284031215612f4257600080fd5b612d2a82612ea6565b60a081526000612f5e60a0830188612e30565b8281036020840152612f708188612e30565b905073ffffffffffffffffffffffffffffffffffffffff861660408401528281036060840152612fa08186612e30565b91505082151560808301529695505050505050565b60006020808385031215612fc857600080fd5b823567ffffffffffffffff80821115612fe057600080fd5b818501915085601f830112612ff457600080fd5b81358181111561300657613006612c16565b8060051b9150613017848301612c45565b818152918301840191848101908884111561303157600080fd5b938501935b8385101561304f57843582529385019390850190613036565b98975050505050505050565b60006020808301818452808551808352604092508286019150828160051b87010184880160005b83811015613145577fffffffffffffffffffffffffffffffffffffffffffffffffffffffffffffffc0898403018552815160c08151855288820151818a8701526130ce82870182612e30565b91505087820151858203898701526130e68282612e30565b915050606073ffffffffffffffffffffffffffffffffffffffff81840151168187015250608080830151868303828801526131218382612e30565b60a09485015115159790940196909652505094870194925090860190600101613082565b509098975050505050505050565b86815260c06020820152600061316c60c0830188612e30565b828103604084015261317e8188612e30565b905073ffffffffffffffffffffffffffffffffffffffff8616606084015282810360808401526131ae8186612e30565b91505082151560a0830152979650505050505050565b600080604083850312156131d757600080fd5b6131e083612ea6565b9150602083013580151581146131f557600080fd5b809150509250929050565b6000806000806080858703121561321657600080fd5b61321f85612ea6565b935061322d60208601612ea6565b925060408501359150606085013567ffffffffffffffff81111561325057600080fd5b8501601f8101871361326157600080fd5b61327087823560208401612c94565b91505092959194509250565b6000806040838503121561328f57600080fd5b61329883612ea6565b91506132a660208401612ea6565b90509250929050565b7f4e487b7100000000000000000000000000000000000000000000000000000000600052601160045260246000fd5b60007fffffffffffffffffffffffffffffffffffffffffffffffffffffffffffffffff821415613310576133106132af565b5060010190565b85815260a06020820152600061333060a0830187612e30565b82810360408401526133428187612e30565b905073ffffffffffffffffffffffffffffffffffffffff85166060840152828103608084015261304f8185612e30565b600181811c9082168061338657607f821691505b602082108114156133c0577f4e487b7100000000000000000000000000000000000000000000000000000000600052602260045260246000fd5b50919050565b7f4e487b7100000000000000000000000000000000000000000000000000000000600052603260045260246000fd5b60008151613407818560208601612e04565b9290920192915050565b7f2300000000000000000000000000000000000000000000000000000000000000815260008251613449816001850160208701612e04565b7f20000000000000000000000000000000000000000000000000000000000000006001939091019283015250600201919050565b7f7b226e616d65223a2022000000000000000000000000000000000000000000008152600087516134b581600a850160208c01612e04565b8751908301906134cc81600a840160208c01612e04565b7f222c226465736372697074696f6e223a20220000000000000000000000000000600a9290910191820152865161350a81601c840160208b01612e04565b7f222c2022696d616765223a202200000000000000000000000000000000000000601c92909101918201528551613548816029840160208a01612e04565b7f222c202261747472696275746573223a205b7b2274726169745f74797065223a602992909101918201527f2022417070726f766564222c202276616c7565223a2022000000000000000000604982015284516135ac816060840160208901612e04565b61363961361061360a6060848601017f227d2c7b2274726169745f74797065223a20225375626d6974746572222c202281527f76616c7565223a20220000000000000000000000000000000000000000000000602082015260290190565b876133f5565b7f227d5d207d000000000000000000000000000000000000000000000000000000815260050190565b9a9950505050505050505050565b7f646174613a6170706c69636174696f6e2f6a736f6e3b6261736536342c00000081526000825161367f81601d850160208701612e04565b91909101601d0192915050565b60008282101561369e5761369e6132af565b500390565b6000817fffffffffffffffffffffffffffffffffffffffffffffffffffffffffffffffff04831182151516156136db576136db6132af565b500290565b600181815b8085111561373957817fffffffffffffffffffffffffffffffffffffffffffffffffffffffffffffffff0482111561371f5761371f6132af565b8085161561372c57918102915b93841c93908002906136e5565b509250929050565b600082613750575060016106e4565b8161375d575060006106e4565b8160018114613773576002811461377d57613799565b60019150506106e4565b60ff84111561378e5761378e6132af565b50506001821b6106e4565b5060208310610133831016604e8410600b84101617156137bc575081810a6106e4565b6137c683836136e0565b807fffffffffffffffffffffffffffffffffffffffffffffffffffffffffffffffff048211156137f8576137f86132af565b029392505050565b6000612d2a8383613741565b7f4e487b7100000000000000000000000000000000000000000000000000000000600052601260045260246000fd5b60008261384a5761384a61380c565b500490565b600060ff8316806138625761386261380c565b8060ff84160491505092915050565b600060ff821660ff84168160ff04811182151516156137f8576137f86132af565b600060ff821660ff8416808210156138ac576138ac6132af565b90039392505050565b600082198211156138c8576138c86132af565b500190565b6000826138dc576138dc61380c565b500690565b7f3c73766720786d6c6e733d22687474703a2f2f7777772e77332e6f72672f323081527f30302f7376672220786d6c6e733a786c696e6b3d22687474703a2f2f7777772e60208201527f77332e6f72672f313939392f786c696e6b222077696474683d2231303234222060408201527f6865696768743d223130323422202076696577426f783d22302030203430302060608201527f343030222066696c6c3d226e6f6e65223e3c646566733e3c7061746820786d6c60808201527f6e733d22687474703a2f2f7777772e77332e6f72672f323030302f737667222060a082018190527f69643d22746578742d706174682d61222020643d224d2032302031302048203360c08301527f383020412032382032382030203020312033393020323020562033383020412060e08301527f32382032382030203020312033383020333930204820323020412032382032386101008301527f20302030203120313020333830205620323020412032382032382030203020316101208301527f203230203130207a22202f3e3c66696c74657220786d6c6e733d22687474703a6101408301527f2f2f7777772e77332e6f72672f323030302f737667222069643d226631223e3c6101608301527f6665496d61676520726573756c743d2270302220786d6c6e733a786c696e6b3d6101808301527f22687474703a2f2f7777772e77332e6f72672f313939392f786c696e6b2220786101a08301527f6c696e6b3a687265663d22646174613a696d6167652f7376672b786d6c3b62616101c08301527f736536342c50484e325a794233615752306144306e4e4441774a79426f5a576c6101e08301527f6e614851394a7a51774d436367646d6c6c64304a766544306e4d4341774944516102008301527f774d4341304d44416e494868746247357a5053646f644852774f6938766433646102208301527f334c6e637a4c6d39795a7938794d4441774c334e325a79632b50484a6c5933516102408301527f6764326c6b644767394a7a51774d4842344a79426f5a576c6e614851394a7a516102608301527f774d4842344a79426d615778735053636a595442694f4459354a79382b5043396102808301527f7a646d632b22202f3e3c6665496d61676520726573756c743d2270312220786d6102a08301527f6c6e733a786c696e6b3d22687474703a2f2f7777772e77332e6f72672f3139396102c08301527f392f786c696e6b2220786c696e6b3a687265663d22646174613a696d6167652f6102e08301527f7376672b786d6c3b6261736536342c50484e325a794233615752306144306e4e6103008301527f4441774a79426f5a576c6e614851394a7a51774d436367646d6c6c64304a76656103208301527f44306e4d434177494451774d4341304d44416e494868746247357a5053646f646103408301527f4852774f693876643364334c6e637a4c6d39795a7938794d4441774c334e325a6103608301527f79632b50474e70636d4e735a53426a6544306e4d5441774a79426a6554306e4d6103808301527f7a41774a794279505363784d6a4277654363675a6d6c736244306e49324d774d6103a08301527f6d466859536376506a777663335a6e50673d3d22202f3e3c6665496d616765206103c08301527f726573756c743d2270322220786d6c6e733a786c696e6b3d22687474703a2f2f6103e08301527f7777772e77332e6f72672f313939392f786c696e6b2220786c696e6b3a6872656104008301527f663d22646174613a696d6167652f7376672b786d6c3b6261736536342c50484e6104208301527f325a794233615752306144306e4e4441774a79426f5a576c6e614851394a7a516104408301527f774d436367646d6c6c64304a766544306e4d434177494451774d4341304d44416104608301527f6e494868746247357a5053646f644852774f693876643364334c6e637a4c6d396104808301527f795a7938794d4441774c334e325a79632b50474e70636d4e735a53426a6544306104a08301527f6e4d5451324a79426a6554306e4d5449304a794279505363784d6a42776543636104c08301527f675a6d6c736244306e497a4d354f57566d59536376506a777663335a6e50673d6104e08301527f3d22202f3e3c6665496d61676520726573756c743d2270332220786d6c6e733a6105008301527f786c696e6b3d22687474703a2f2f7777772e77332e6f72672f313939392f786c6105208301527f696e6b2220786c696e6b3a687265663d22646174613a696d6167652f7376672b6105408301527f786d6c3b6261736536342c50484e325a794233615752306144306e4e4441774a6105608301527f79426f5a576c6e614851394a7a51774d436367646d6c6c64304a766544306e4d6105808301527f434177494451774d4341304d44416e494868746247357a5053646f644852774f6105a08301527f693876643364334c6e637a4c6d39795a7938794d4441774c334e325a79632b506105c08301527f474e70636d4e735a53426a6544306e4d7a4d784a79426a6554306e4d6a4d324a6105e08301527f794279505363784d444277654363675a6d6c736244306e497a6b334e54646d5a6106008301527f696376506a777663335a6e50673d3d22202f3e3c6665426c656e64206d6f64656106208301527f3d226f7665726c61792220696e3d2270302220696e323d22703122202f3e3c666106408301527f65426c656e64206d6f64653d226578636c7573696f6e2220696e323d227032226106608301527f202f3e3c6665426c656e64206d6f64653d226f7665726c61792220696e323d226106808301527f70332220726573756c743d22626c656e644f757422202f3e3c666547617573736106a08301527f69616e426c757220696e3d22626c656e644f75742220737464446576696174696106c08301527f6f6e3d22343222202f3e3c2f66696c7465723e3c636c69705061746820786d6c6106e08301526107008201527f69643d22636f726e657273223e3c726563742077696474683d223430302220686107208201527f65696768743d22343030222072783d223138222072793d22313822202f3e3c2f6107408201527f636c6970506174683e3c726563742069643d22706174685f302220783d2230226107608201527f20793d2230222077696474683d2231303022206865696768743d22323622202f6107808201527f3e3c6c696e6561724772616469656e742069643d226c696e6561725f302220786107a08201527f313d2231303325222079313d22343925222078323d222d3325222079323d22346107c08201527f392522206772616469656e74556e6974733d226f626a656374426f756e64696e6107e08201527f67426f78223e3c73746f70206f66667365743d2230222073746f702d636f6c6f6108008201527f723d2223303046423843222073746f702d6f7061636974793d223122202f3e3c6108208201527f73746f70206f66667365743d22302e30393731323637222073746f702d636f6c6108408201527f6f723d2223363443434542222073746f702d6f7061636974793d223122202f3e61086082018190527f3c73746f70206f66667365743d22302e323736363833222073746f702d636f6c6108808301526108a082018190527f3c73746f70206f66667365743d22302e333139363036222073746f702d636f6c6108c08301526108e08201527f3c73746f70206f66667365743d22302e363937353436222073746f702d636f6c6109008201527f6f723d2223304633394439222073746f702d6f7061636974793d223122202f3e61092082018190527f3c73746f70206f66667365743d22302e383036313439222073746f702d636f6c61094083015261096082018190527f3c73746f70206f66667365743d2231222073746f702d636f6c6f723d222336346109808301527f43434542222073746f702d6f7061636974793d223122202f3e3c2f6c696e65616109a08301527f724772616469656e743e3c6c696e6561724772616469656e742069643d226c696109c08301527f6e6561725f31222078313d22373725222079313d22373825222078323d2232346109e08301527f25222079323d22382522206772616469656e74556e6974733d226f626a656374610a008301527f426f756e64696e67426f78223e3c73746f70206f66667365743d223022207374610a208301527f6f702d636f6c6f723d2223303046423843222073746f702d6f7061636974793d610a408301527f223122202f3e3c73746f70206f66667365743d22302e30393538333731222073610a608301527f746f702d636f6c6f723d2223363443434542222073746f702d6f706163697479610a8083018190527f3d223122202f3e3c73746f70206f66667365743d22302e343737303039222073610aa0840152610ac083018190527f3d223122202f3e3c73746f70206f66667365743d22302e363436363935222073610ae0840152610b008301527f3d223122202f3e3c73746f70206f66667365743d2231222073746f702d636f6c610b20830152610b408201527f3c2f6c696e6561724772616469656e743e3c2f646566733e3c67206f70616369610b608201527f74793d223122207472616e73666f726d3d227472616e736c6174652830203029610b808201527f2220666f6e742d66616d696c793d22436f7572696572204e65772c206d6f6e6f610ba08201527f7370616365223e3c6720786d6c6e733d22687474703a2f2f7777772e77332e6f610bc08201527f72672f323030302f7376672220636c69702d706174683d2275726c2823636f72610be08201527f6e65727329223e3c726563742066696c6c3d226130623836392220783d223070610c008201527f782220793d22307078222077696474683d22343030707822206865696768743d610c208201527f22343030707822202f3e3c72656374207374796c653d2266696c7465723a2075610c408201527f726c28236631292220783d223070782220793d22307078222077696474683d22610c608201527f343030707822206865696768743d22343030707822202f3e3c7265637420783d610c808201527f22302220793d2230222077696474683d2234303022206865696768743d223430610ca08201527f30222072783d223135222072793d223135222066696c6c3d2272676261283235610cc08201527f352c3235352c3235352c302e342922202f3e3c7265637420783d223133222079610ce08201527f3d223133222077696474683d2233373422206865696768743d22333734222072610d008201527f783d223135222072793d22313522207374726f6b653d2272676261283235352c610d208201527f3235352c3235352c302e312922202f3e3c2f673e3c67206f7061636974793d22610d408201527f3122207472616e73666f726d3d227472616e736c617465283235203235292022610d608201527f3e3c666f726569676e4f626a6563742077696474683d22333630222068656967610d808201527f68743d223630223e3c626f647920786d6c6e733d22687474703a2f2f7777772e610da08201527f77332e6f72672f313939392f7868746d6c22207374796c653d226d617267696e610dc08201527f3a303b70616464696e673a303b223e3c70207374796c653d22666f6e742d7369610de08201527f7a653a323470783b6d617267696e3a303b636f6c6f723a233030303b223e0000610e008201526000614a86614a8061494d61360a610e1e8601896133f5565b7f3c2f703e3c2f626f64793e3c2f666f726569676e4f626a6563743e3c2f673e3c81527f67206f7061636974793d223122207472616e73666f726d3d227472616e736c6160208201527f74652832352039392920223e3c666f726569676e4f626a65637420776964746860408201527f3d2233363022206865696768743d22323130223e3c626f647920786d6c6e733d60608201527f22687474703a2f2f7777772e77332e6f72672f313939392f7868746d6c22207360808201527f74796c653d226d617267696e3a303b70616464696e673a303b223e3c7020737460a08201527f796c653d22666f6e742d73697a653a313670783b6d617267696e3a303b636f6c60c08201527f6f723a233636363b223e0000000000000000000000000000000000000000000060e082015260ea0190565b846133f5565b95945050505050565b7f3c2f703e3c2f626f64793e3c2f666f726569676e4f626a6563743e3c2f673e3c81527f6720786d6c6e733d22687474703a2f2f7777772e77332e6f72672f323030302f60208201527f73766722207472616e73666f726d3d227472616e736c6174652832352032383060408201527f2920223e3c666f726569676e4f626a6563742077696474683d2233353022206860608201527f65696768743d22313030223e3c626f647920786d6c6e733d22687474703a2f2f60808201527f7777772e77332e6f72672f313939392f7868746d6c22207374796c653d226d6160a08201527f7267696e3a303b70616464696e673a303b70616464696e672d746f703a35707860c08201527f3b223e3c646976207374796c653d226d617267696e2d626f74746f6d3a31357060e08201527f783b223e3c70207374796c653d22646973706c61793a696e6c696e653b666f6e6101008201527f742d73697a653a313270783b6d617267696e3a303b636f6c6f723a236666663b6101208201527f6261636b67726f756e643a7267626128302c302c302c302e36293b626f7264656101408201527f722d7261646975733a3870783b70616464696e673a37707820313070783b223e6101608201527f3c7370616e207374796c653d22636f6c6f723a72676261283235352c3235352c6101808201527f3235352c302e3629223e417070726f7665643c2f7370616e3e200000000000006101a08201526000614a86614a80614dcc614cbf6101ba8601896133f5565b7f3c2f703e3c2f6469763e3c646976207374796c653d226d617267696e2d626f7481527f746f6d3a313270783b223e3c70207374796c653d22646973706c61793a696e6c60208201527f696e653b666f6e742d73697a653a313270783b6d617267696e3a303b636f6c6f60408201527f723a236666663b6261636b67726f756e643a7267626128302c302c302c302e3660608201527f293b626f726465722d7261646975733a3870783b70616464696e673a3770782060808201527f313070783b223e3c7370616e207374796c653d22636f6c6f723a72676261283260a08201527f35352c3235352c3235352c302e3629223e496465612062793c2f7370616e3e2060c082015260e00190565b866133f5565b60008351614de4818460208801612e04565b835190830190614df8818360208801612e04565b01949350505050565b7f646174613a696d6167652f7376672b786d6c3b6261736536342c000000000000815260008251614e3981601a850160208701612e04565b91909101601a0192915050565b600073ffffffffffffffffffffffffffffffffffffffff808716835280861660208401525083604083015260806060830152614e856080830184612e30565b9695505050505050565b600060208284031215614ea157600080fd5b8151612d2a81612db9565b600060ff821660ff84168060ff03821115614ec957614ec96132af565b019392505050565b7f3c2f703e3c2f6469763e3c6469763e3c70207374796c653d22666f6e742d736981527f7a653a313270783b6d617267696e3a303b636f6c6f723a236666663b6261636b60208201527f67726f756e643a7267626128302c302c302c302e36293b626f726465722d726160408201527f646975733a3870783b70616464696e673a37707820313070783b223e30780000606082015260008451614f7b81607e850160208901612e04565b7f3c2f703e3c2f6469763e3c2f626f64793e3c2f666f726569676e4f626a656374607e918401918201527f3e3c2f673e3c7465787420746578742d72656e646572696e673d226f7074696d609e8201527f697a655370656564223e3c74657874506174682073746172744f66667365743d60be8201527f222d31303025222066696c6c3d22233030302220666f6e742d73697a653d223160de8201527f3270782220666f6e742d7765696768743d223530302220786d6c6e733a786c6960fe8201527f6e6b3d22687474703a2f2f7777772e77332e6f72672f313939392f786c696e6b61011e8201527f2220786c696e6b3a687265663d2223746578742d706174682d61223e3078000061013e820152614e856151fd614dcc6150a261015c8501896133f5565b7f203c616e696d6174652061646469746976653d2273756d22206174747269627581527f74654e616d653d2273746172744f6666736574222066726f6d3d22302522207460208201527f6f3d22313030252220626567696e3d22307322206475723d223330732220207260408201527f6570656174436f756e743d22696e646566696e69746522202f3e3c2f7465787460608201527f506174683e3c74657874506174682073746172744f66667365743d223025222060808201527f66696c6c3d2223303030222020666f6e742d73697a653d22313270782220666f60a08201527f6e742d7765696768743d223530302220786d6c6e733a786c696e6b3d2268747460c08201527f703a2f2f7777772e77332e6f72672f313939392f786c696e6b2220786c696e6b60e08201527f3a687265663d2223746578742d706174682d61223e30780000000000000000006101008201526101170190565b7f203c616e696d6174652061646469746976653d2273756d22206174747269627581527f74654e616d653d2273746172744f6666736574222066726f6d3d22302522207460208201527f6f3d22313030252220626567696e3d22307322206475723d223330732220207260408201527f6570656174436f756e743d22696e646566696e69746522202f3e3c2f7465787460608201527f506174683e3c2f746578743e3c2f673e3c2f7376673e0000000000000000000060808201526096019056fe4142434445464748494a4b4c4d4e4f505152535455565758595a6162636465666768696a6b6c6d6e6f707172737475767778797a303132333435363738392b2fa2646970667358221220225a47cf9db2bddd936c40340e18cb4f08719a22584c6e01d5035118cd4e083664736f6c63430008090033",
  "linkReferences": {},
  "deployedLinkReferences": {}
}