{
  "_format": "hh-sol-artifact-1",
  "contractName": "IdeaNFT",
  "sourceName": "contracts/idea3/IdeaNFT.sol",
  "abi": [
    {
      "inputs": [],
      "stateMutability": "nonpayable",
      "type": "constructor"
    },
    {
      "anonymous": false,
      "inputs": [
        {
          "indexed": true,
          "internalType": "address",
          "name": "owner",
          "type": "address"
        },
        {
          "indexed": true,
          "internalType": "address",
          "name": "approved",
          "type": "address"
        },
        {
          "indexed": true,
          "internalType": "uint256",
          "name": "tokenId",
          "type": "uint256"
        }
      ],
      "name": "Approval",
      "type": "event"
    },
    {
      "anonymous": false,
      "inputs": [
        {
          "indexed": true,
          "internalType": "address",
          "name": "owner",
          "type": "address"
        },
        {
          "indexed": true,
          "internalType": "address",
          "name": "operator",
          "type": "address"
        },
        {
          "indexed": false,
          "internalType": "bool",
          "name": "approved",
          "type": "bool"
        }
      ],
      "name": "ApprovalForAll",
      "type": "event"
    },
    {
      "anonymous": false,
      "inputs": [
        {
          "indexed": true,
          "internalType": "address",
          "name": "previousOwner",
          "type": "address"
        },
        {
          "indexed": true,
          "internalType": "address",
          "name": "newOwner",
          "type": "address"
        }
      ],
      "name": "OwnershipTransferred",
      "type": "event"
    },
    {
      "anonymous": false,
      "inputs": [
        {
          "indexed": true,
          "internalType": "address",
          "name": "from",
          "type": "address"
        },
        {
          "indexed": true,
          "internalType": "address",
          "name": "to",
          "type": "address"
        },
        {
          "indexed": true,
          "internalType": "uint256",
          "name": "tokenId",
          "type": "uint256"
        }
      ],
      "name": "Transfer",
      "type": "event"
    },
    {
      "inputs": [],
      "name": "CANNOT_TRANSFER_TO_ZERO_ADDRESS",
      "outputs": [
        {
          "internalType": "string",
          "name": "",
          "type": "string"
        }
      ],
      "stateMutability": "view",
      "type": "function"
    },
    {
      "inputs": [],
      "name": "NOT_CURRENT_OWNER",
      "outputs": [
        {
          "internalType": "string",
          "name": "",
          "type": "string"
        }
      ],
      "stateMutability": "view",
      "type": "function"
    },
    {
      "inputs": [
        {
          "internalType": "address",
          "name": "to",
          "type": "address"
        },
        {
          "internalType": "uint256",
          "name": "tokenId",
          "type": "uint256"
        }
      ],
      "name": "approve",
      "outputs": [],
      "stateMutability": "nonpayable",
      "type": "function"
    },
    {
      "inputs": [
        {
          "internalType": "address",
          "name": "owner",
          "type": "address"
        }
      ],
      "name": "balanceOf",
      "outputs": [
        {
          "internalType": "uint256",
          "name": "",
          "type": "uint256"
        }
      ],
      "stateMutability": "view",
      "type": "function"
    },
    {
      "inputs": [
        {
          "internalType": "uint256",
          "name": "tokenId",
          "type": "uint256"
        }
      ],
      "name": "buy",
      "outputs": [],
      "stateMutability": "payable",
      "type": "function"
    },
    {
      "inputs": [
        {
          "internalType": "uint256",
          "name": "tokenId",
          "type": "uint256"
        }
      ],
      "name": "getApproved",
      "outputs": [
        {
          "internalType": "address",
          "name": "",
          "type": "address"
        }
      ],
      "stateMutability": "view",
      "type": "function"
    },
    {
      "inputs": [
        {
          "internalType": "address",
          "name": "owner",
          "type": "address"
        },
        {
          "internalType": "address",
          "name": "operator",
          "type": "address"
        }
      ],
      "name": "isApprovedForAll",
      "outputs": [
        {
          "internalType": "bool",
          "name": "",
          "type": "bool"
        }
      ],
      "stateMutability": "view",
      "type": "function"
    },
    {
      "inputs": [
        {
          "internalType": "uint256",
          "name": "tokenId",
          "type": "uint256"
        },
        {
          "internalType": "uint256",
          "name": "price",
          "type": "uint256"
        },
        {
          "internalType": "uint256",
          "name": "duration",
          "type": "uint256"
        }
      ],
      "name": "list",
      "outputs": [],
      "stateMutability": "nonpayable",
      "type": "function"
    },
    {
      "inputs": [],
      "name": "name",
      "outputs": [
        {
          "internalType": "string",
          "name": "",
          "type": "string"
        }
      ],
      "stateMutability": "view",
      "type": "function"
    },
    {
      "inputs": [
        {
          "internalType": "uint256",
          "name": "tokenId",
          "type": "uint256"
        }
      ],
      "name": "orderOfTokenId",
      "outputs": [
        {
          "components": [
            {
              "internalType": "address",
              "name": "lister",
              "type": "address"
            },
            {
              "internalType": "uint256",
              "name": "price",
              "type": "uint256"
            },
            {
              "internalType": "uint256",
              "name": "list_time",
              "type": "uint256"
            },
            {
              "internalType": "uint256",
              "name": "duration",
              "type": "uint256"
            }
          ],
          "internalType": "struct ERC721Tradable.TraderOrder",
          "name": "",
          "type": "tuple"
        }
      ],
      "stateMutability": "view",
      "type": "function"
    },
    {
      "inputs": [],
      "name": "owner",
      "outputs": [
        {
          "internalType": "address",
          "name": "",
          "type": "address"
        }
      ],
      "stateMutability": "view",
      "type": "function"
    },
    {
      "inputs": [
        {
          "internalType": "uint256",
          "name": "tokenId",
          "type": "uint256"
        }
      ],
      "name": "ownerOf",
      "outputs": [
        {
          "internalType": "address",
          "name": "",
          "type": "address"
        }
      ],
      "stateMutability": "view",
      "type": "function"
    },
    {
      "inputs": [
        {
          "internalType": "address",
          "name": "from",
          "type": "address"
        },
        {
          "internalType": "address",
          "name": "to",
          "type": "address"
        },
        {
          "internalType": "uint256",
          "name": "tokenId",
          "type": "uint256"
        }
      ],
      "name": "safeTransferFrom",
      "outputs": [],
      "stateMutability": "nonpayable",
      "type": "function"
    },
    {
      "inputs": [
        {
          "internalType": "address",
          "name": "from",
          "type": "address"
        },
        {
          "internalType": "address",
          "name": "to",
          "type": "address"
        },
        {
          "internalType": "uint256",
          "name": "tokenId",
          "type": "uint256"
        },
        {
          "internalType": "bytes",
          "name": "data",
          "type": "bytes"
        }
      ],
      "name": "safeTransferFrom",
      "outputs": [],
      "stateMutability": "nonpayable",
      "type": "function"
    },
    {
      "inputs": [
        {
          "internalType": "address",
          "name": "operator",
          "type": "address"
        },
        {
          "internalType": "bool",
          "name": "approved",
          "type": "bool"
        }
      ],
      "name": "setApprovalForAll",
      "outputs": [],
      "stateMutability": "nonpayable",
      "type": "function"
    },
    {
      "inputs": [
        {
          "internalType": "string",
          "name": "__baseURI",
          "type": "string"
        }
      ],
      "name": "setBaseURI",
      "outputs": [],
      "stateMutability": "nonpayable",
      "type": "function"
    },
    {
      "inputs": [
        {
          "internalType": "bytes4",
          "name": "interfaceId",
          "type": "bytes4"
        }
      ],
      "name": "supportsInterface",
      "outputs": [
        {
          "internalType": "bool",
          "name": "",
          "type": "bool"
        }
      ],
      "stateMutability": "view",
      "type": "function"
    },
    {
      "inputs": [],
      "name": "symbol",
      "outputs": [
        {
          "internalType": "string",
          "name": "",
          "type": "string"
        }
      ],
      "stateMutability": "view",
      "type": "function"
    },
    {
      "inputs": [
        {
          "internalType": "uint256",
          "name": "tokenId",
          "type": "uint256"
        }
      ],
      "name": "tokenURI",
      "outputs": [
        {
          "internalType": "string",
          "name": "",
          "type": "string"
        }
      ],
      "stateMutability": "view",
      "type": "function"
    },
    {
      "inputs": [
        {
          "internalType": "address",
          "name": "from",
          "type": "address"
        },
        {
          "internalType": "address",
          "name": "to",
          "type": "address"
        },
        {
          "internalType": "uint256",
          "name": "tokenId",
          "type": "uint256"
        }
      ],
      "name": "transferFrom",
      "outputs": [],
      "stateMutability": "nonpayable",
      "type": "function"
    },
    {
      "inputs": [
        {
          "internalType": "address",
          "name": "_newOwner",
          "type": "address"
        }
      ],
      "name": "transferOwnership",
      "outputs": [],
      "stateMutability": "nonpayable",
      "type": "function"
    }
  ],
  "bytecode": "0x60806040523480156200001157600080fd5b50604080518082018252600580825264496465613360d81b602080840182815285518087019096529285528401528151919291620000529160009162000083565b5080516200006890600190602084019062000083565b5050600780546001600160a01b031916331790555062000166565b828054620000919062000129565b90600052602060002090601f016020900481019282620000b5576000855562000100565b82601f10620000d057805160ff191683800117855562000100565b8280016001018555821562000100579182015b8281111562000100578251825591602001919060010190620000e3565b506200010e92915062000112565b5090565b5b808211156200010e576000815560010162000113565b600181811c908216806200013e57607f821691505b602082108114156200016057634e487b7160e01b600052602260045260246000fd5b50919050565b61238680620001766000396000f3fe60806040526004361061016a5760003560e01c8063860d248a116100cb578063c6561a9c1161007f578063e985e9c511610059578063e985e9c514610462578063f2fde38b146104b8578063f3fe3bc3146104d857600080fd5b8063c6561a9c146103c6578063c87b56dd1461042f578063d96a094a1461044f57600080fd5b806395d89b41116100b057806395d89b4114610371578063a22cb46514610386578063b88d4fde146103a657600080fd5b8063860d248a146102fb5780638da5cb5b1461034457600080fd5b806323b872dd1161012257806355f804b31161010757806355f804b31461028d5780636352211e146102ad57806370a08231146102cd57600080fd5b806323b872dd1461024d57806342842e0e1461026d57600080fd5b8063081812fc11610153578063081812fc146101c6578063095ea7b31461020b57806319aeb4901461022d57600080fd5b806301ffc9a71461016f57806306fdde03146101a4575b600080fd5b34801561017b57600080fd5b5061018f61018a366004611dbe565b610521565b60405190151581526020015b60405180910390f35b3480156101b057600080fd5b506101b9610606565b60405161019b9190611e51565b3480156101d257600080fd5b506101e66101e1366004611e64565b610698565b60405173ffffffffffffffffffffffffffffffffffffffff909116815260200161019b565b34801561021757600080fd5b5061022b610226366004611ea6565b6106cc565b005b34801561023957600080fd5b5061022b610248366004611ed0565b61085e565b34801561025957600080fd5b5061022b610268366004611efc565b610a58565b34801561027957600080fd5b5061022b610288366004611efc565b610af9565b34801561029957600080fd5b5061022b6102a8366004611ffb565b610b14565b3480156102b957600080fd5b506101e66102c8366004611e64565b610bb3565b3480156102d957600080fd5b506102ed6102e8366004612044565b610c3f565b60405190815260200161019b565b34801561030757600080fd5b506101b96040518060400160405280600681526020017f303138303032000000000000000000000000000000000000000000000000000081525081565b34801561035057600080fd5b506007546101e69073ffffffffffffffffffffffffffffffffffffffff1681565b34801561037d57600080fd5b506101b9610d0d565b34801561039257600080fd5b5061022b6103a136600461205f565b610d1c565b3480156103b257600080fd5b5061022b6103c136600461209b565b610d27565b3480156103d257600080fd5b506103e66103e1366004611e64565b610dcf565b60405161019b9190815173ffffffffffffffffffffffffffffffffffffffff16815260208083015190820152604080830151908201526060918201519181019190915260800190565b34801561043b57600080fd5b506101b961044a366004611e64565b610e6b565b61022b61045d366004611e64565b610ed2565b34801561046e57600080fd5b5061018f61047d366004612117565b73ffffffffffffffffffffffffffffffffffffffff918216600090815260056020908152604080832093909416825291909152205460ff1690565b3480156104c457600080fd5b5061022b6104d3366004612044565b6111f8565b3480156104e457600080fd5b506101b96040518060400160405280600681526020017f303138303031000000000000000000000000000000000000000000000000000081525081565b60007fffffffff0000000000000000000000000000000000000000000000000000000082167f80ac58cd0000000000000000000000000000000000000000000000000000000014806105b457507fffffffff0000000000000000000000000000000000000000000000000000000082167f5b5e139f00000000000000000000000000000000000000000000000000000000145b8061060057507f01ffc9a7000000000000000000000000000000000000000000000000000000007fffffffff000000000000000000000000000000000000000000000000000000008316145b92915050565b6060600080546106159061214a565b80601f01602080910402602001604051908101604052809291908181526020018280546106419061214a565b801561068e5780601f106106635761010080835404028352916020019161068e565b820191906000526020600020905b81548152906001019060200180831161067157829003601f168201915b5050505050905090565b60006106a382611391565b5060009081526004602052604090205473ffffffffffffffffffffffffffffffffffffffff1690565b60006106d782610bb3565b90508073ffffffffffffffffffffffffffffffffffffffff168373ffffffffffffffffffffffffffffffffffffffff16141561079a576040517f08c379a000000000000000000000000000000000000000000000000000000000815260206004820152602160248201527f4552433732313a20617070726f76616c20746f2063757272656e74206f776e6560448201527f720000000000000000000000000000000000000000000000000000000000000060648201526084015b60405180910390fd5b3373ffffffffffffffffffffffffffffffffffffffff821614806107c357506107c3813361047d565b61084f576040517f08c379a000000000000000000000000000000000000000000000000000000000815260206004820152603e60248201527f4552433732313a20617070726f76652063616c6c6572206973206e6f7420746f60448201527f6b656e206f776e6572206e6f7220617070726f76656420666f7220616c6c00006064820152608401610791565b610859838361141f565b505050565b61086783610bb3565b73ffffffffffffffffffffffffffffffffffffffff163373ffffffffffffffffffffffffffffffffffffffff16146108fb576040517f08c379a000000000000000000000000000000000000000000000000000000000815260206004820152600960248201527f4e6f74206f776e657200000000000000000000000000000000000000000000006044820152606401610791565b60008211610965576040517f08c379a000000000000000000000000000000000000000000000000000000000815260206004820152601c60248201527f5072696365206d7573742062652067726561746572207468616e2030000000006044820152606401610791565b600081116109cf576040517f08c379a000000000000000000000000000000000000000000000000000000000815260206004820152601f60248201527f4475726174696f6e206d7573742062652067726561746572207468616e2030006044820152606401610791565b60408051608081018252338152602080820194855242828401908152606083019485526000968752600690915291909420935184547fffffffffffffffffffffffff00000000000000000000000000000000000000001673ffffffffffffffffffffffffffffffffffffffff909116178455915160018401559051600283015551600390910155565b610a6233826114bf565b610aee576040517f08c379a000000000000000000000000000000000000000000000000000000000815260206004820152602e60248201527f4552433732313a2063616c6c6572206973206e6f7420746f6b656e206f776e6560448201527f72206e6f7220617070726f7665640000000000000000000000000000000000006064820152608401610791565b61085983838361157f565b61085983838360405180602001604052806000815250610d27565b60075460408051808201909152600681527f303138303031000000000000000000000000000000000000000000000000000060208201529073ffffffffffffffffffffffffffffffffffffffff163314610b9b576040517f08c379a00000000000000000000000000000000000000000000000000000000081526004016107919190611e51565b508051610baf906008906020840190611cf7565b5050565b60008181526002602052604081205473ffffffffffffffffffffffffffffffffffffffff1680610600576040517f08c379a000000000000000000000000000000000000000000000000000000000815260206004820152601860248201527f4552433732313a20696e76616c696420746f6b656e20494400000000000000006044820152606401610791565b600073ffffffffffffffffffffffffffffffffffffffff8216610ce4576040517f08c379a000000000000000000000000000000000000000000000000000000000815260206004820152602960248201527f4552433732313a2061646472657373207a65726f206973206e6f74206120766160448201527f6c6964206f776e657200000000000000000000000000000000000000000000006064820152608401610791565b5073ffffffffffffffffffffffffffffffffffffffff1660009081526003602052604090205490565b6060600180546106159061214a565b610baf3383836117e6565b610d3133836114bf565b610dbd576040517f08c379a000000000000000000000000000000000000000000000000000000000815260206004820152602e60248201527f4552433732313a2063616c6c6572206973206e6f7420746f6b656e206f776e6560448201527f72206e6f7220617070726f7665640000000000000000000000000000000000006064820152608401610791565b610dc984848484611914565b50505050565b610e106040518060800160405280600073ffffffffffffffffffffffffffffffffffffffff1681526020016000815260200160008152602001600081525090565b506000908152600660209081526040918290208251608081018452815473ffffffffffffffffffffffffffffffffffffffff168152600182015492810192909252600281015492820192909252600390910154606082015290565b6060610e7682611391565b6000610e806119b7565b90506000815111610ea05760405180602001604052806000815250610ecb565b80610eaa846119c6565b604051602001610ebb92919061219e565b6040516020818303038152906040525b9392505050565b610edb81610bb3565b73ffffffffffffffffffffffffffffffffffffffff163373ffffffffffffffffffffffffffffffffffffffff161415610f1357600080fd5b6000818152600660209081526040918290208251608081018452815473ffffffffffffffffffffffffffffffffffffffff16808252600183015493820193909352600282015493810193909352600301546060830152610fcf576040517f08c379a000000000000000000000000000000000000000000000000000000000815260206004820152601060248201527f546f6b656e206e6f74206c6973746564000000000000000000000000000000006044820152606401610791565b806020015134101561103d576040517f08c379a000000000000000000000000000000000000000000000000000000000815260206004820152601260248201527f496e73756666696369656e742066756e647300000000000000000000000000006044820152606401610791565b8060600151816040015161105191906121fc565b4211156110ba576040517f08c379a000000000000000000000000000000000000000000000000000000000815260206004820152600d60248201527f4f726465722065787069726564000000000000000000000000000000000000006044820152606401610791565b60006110c583610bb3565b9050816000015173ffffffffffffffffffffffffffffffffffffffff168173ffffffffffffffffffffffffffffffffffffffff1614611160576040517f08c379a000000000000000000000000000000000000000000000000000000000815260206004820152601860248201527f53656c6c6572206973206e6f7420746865206c697374657200000000000000006044820152606401610791565b61116b81338561157f565b60405173ffffffffffffffffffffffffffffffffffffffff8216903480156108fc02916000818181858888f193505050501580156111ad573d6000803e3d6000fd5b505050600090815260066020526040812080547fffffffffffffffffffffffff0000000000000000000000000000000000000000168155600181018290556002810182905560030155565b60075460408051808201909152600681527f303138303031000000000000000000000000000000000000000000000000000060208201529073ffffffffffffffffffffffffffffffffffffffff16331461127f576040517f08c379a00000000000000000000000000000000000000000000000000000000081526004016107919190611e51565b5060408051808201909152600681527f3031383030320000000000000000000000000000000000000000000000000000602082015273ffffffffffffffffffffffffffffffffffffffff8216611302576040517f08c379a00000000000000000000000000000000000000000000000000000000081526004016107919190611e51565b5060075460405173ffffffffffffffffffffffffffffffffffffffff8084169216907f8be0079c531659141344cd1fd0a4f28419497f9722a3daafe3b4186f6b6457e090600090a3600780547fffffffffffffffffffffffff00000000000000000000000000000000000000001673ffffffffffffffffffffffffffffffffffffffff92909216919091179055565b60008181526002602052604090205473ffffffffffffffffffffffffffffffffffffffff1661141c576040517f08c379a000000000000000000000000000000000000000000000000000000000815260206004820152601860248201527f4552433732313a20696e76616c696420746f6b656e20494400000000000000006044820152606401610791565b50565b600081815260046020526040902080547fffffffffffffffffffffffff00000000000000000000000000000000000000001673ffffffffffffffffffffffffffffffffffffffff8416908117909155819061147982610bb3565b73ffffffffffffffffffffffffffffffffffffffff167f8c5be1e5ebec7d5bd14f71427d1e84f3dd0314c0f7b2291e5b200ac8c7c3b92560405160405180910390a45050565b6000806114cb83610bb3565b90508073ffffffffffffffffffffffffffffffffffffffff168473ffffffffffffffffffffffffffffffffffffffff161480611539575073ffffffffffffffffffffffffffffffffffffffff80821660009081526005602090815260408083209388168352929052205460ff165b8061157757508373ffffffffffffffffffffffffffffffffffffffff1661155f84610698565b73ffffffffffffffffffffffffffffffffffffffff16145b949350505050565b8273ffffffffffffffffffffffffffffffffffffffff1661159f82610bb3565b73ffffffffffffffffffffffffffffffffffffffff1614611642576040517f08c379a000000000000000000000000000000000000000000000000000000000815260206004820152602560248201527f4552433732313a207472616e736665722066726f6d20696e636f72726563742060448201527f6f776e65720000000000000000000000000000000000000000000000000000006064820152608401610791565b73ffffffffffffffffffffffffffffffffffffffff82166116e4576040517f08c379a0000000000000000000000000000000000000000000000000000000008152602060048201526024808201527f4552433732313a207472616e7366657220746f20746865207a65726f2061646460448201527f72657373000000000000000000000000000000000000000000000000000000006064820152608401610791565b6116ef60008261141f565b73ffffffffffffffffffffffffffffffffffffffff83166000908152600360205260408120805460019290611725908490612214565b909155505073ffffffffffffffffffffffffffffffffffffffff821660009081526003602052604081208054600192906117609084906121fc565b909155505060008181526002602052604080822080547fffffffffffffffffffffffff00000000000000000000000000000000000000001673ffffffffffffffffffffffffffffffffffffffff86811691821790925591518493918716917fddf252ad1be2c89b69c2b068fc378daa952ba7f163c4a11628f55a4df523b3ef91a4505050565b8173ffffffffffffffffffffffffffffffffffffffff168373ffffffffffffffffffffffffffffffffffffffff16141561187c576040517f08c379a000000000000000000000000000000000000000000000000000000000815260206004820152601960248201527f4552433732313a20617070726f766520746f2063616c6c6572000000000000006044820152606401610791565b73ffffffffffffffffffffffffffffffffffffffff83811660008181526005602090815260408083209487168084529482529182902080547fffffffffffffffffffffffffffffffffffffffffffffffffffffffffffffff001686151590811790915591519182527f17307eab39ab6107e8899845ad3d59bd9653f200f220920489ca2b5937696c31910160405180910390a3505050565b61191f84848461157f565b61192b84848484611af8565b610dc9576040517f08c379a000000000000000000000000000000000000000000000000000000000815260206004820152603260248201527f4552433732313a207472616e7366657220746f206e6f6e20455243373231526560448201527f63656976657220696d706c656d656e74657200000000000000000000000000006064820152608401610791565b6060600880546106159061214a565b606081611a0657505060408051808201909152600181527f3000000000000000000000000000000000000000000000000000000000000000602082015290565b8160005b8115611a305780611a1a8161222b565b9150611a299050600a83612293565b9150611a0a565b60008167ffffffffffffffff811115611a4b57611a4b611f38565b6040519080825280601f01601f191660200182016040528015611a75576020820181803683370190505b5090505b841561157757611a8a600183612214565b9150611a97600a866122a7565b611aa29060306121fc565b60f81b818381518110611ab757611ab76122bb565b60200101907effffffffffffffffffffffffffffffffffffffffffffffffffffffffffffff1916908160001a905350611af1600a86612293565b9450611a79565b600073ffffffffffffffffffffffffffffffffffffffff84163b15611cec576040517f150b7a0200000000000000000000000000000000000000000000000000000000815273ffffffffffffffffffffffffffffffffffffffff85169063150b7a0290611b6f9033908990889088906004016122ea565b602060405180830381600087803b158015611b8957600080fd5b505af1925050508015611bd7575060408051601f3d9081017fffffffffffffffffffffffffffffffffffffffffffffffffffffffffffffffe0168201909252611bd491810190612333565b60015b611ca1573d808015611c05576040519150601f19603f3d011682016040523d82523d6000602084013e611c0a565b606091505b508051611c99576040517f08c379a000000000000000000000000000000000000000000000000000000000815260206004820152603260248201527f4552433732313a207472616e7366657220746f206e6f6e20455243373231526560448201527f63656976657220696d706c656d656e74657200000000000000000000000000006064820152608401610791565b805181602001fd5b7fffffffff00000000000000000000000000000000000000000000000000000000167f150b7a0200000000000000000000000000000000000000000000000000000000149050611577565b506001949350505050565b828054611d039061214a565b90600052602060002090601f016020900481019282611d255760008555611d6b565b82601f10611d3e57805160ff1916838001178555611d6b565b82800160010185558215611d6b579182015b82811115611d6b578251825591602001919060010190611d50565b50611d77929150611d7b565b5090565b5b80821115611d775760008155600101611d7c565b7fffffffff000000000000000000000000000000000000000000000000000000008116811461141c57600080fd5b600060208284031215611dd057600080fd5b8135610ecb81611d90565b60005b83811015611df6578181015183820152602001611dde565b83811115610dc95750506000910152565b60008151808452611e1f816020860160208601611ddb565b601f017fffffffffffffffffffffffffffffffffffffffffffffffffffffffffffffffe0169290920160200192915050565b602081526000610ecb6020830184611e07565b600060208284031215611e7657600080fd5b5035919050565b803573ffffffffffffffffffffffffffffffffffffffff81168114611ea157600080fd5b919050565b60008060408385031215611eb957600080fd5b611ec283611e7d565b946020939093013593505050565b600080600060608486031215611ee557600080fd5b505081359360208301359350604090920135919050565b600080600060608486031215611f1157600080fd5b611f1a84611e7d565b9250611f2860208501611e7d565b9150604084013590509250925092565b7f4e487b7100000000000000000000000000000000000000000000000000000000600052604160045260246000fd5b600067ffffffffffffffff80841115611f8257611f82611f38565b604051601f85017fffffffffffffffffffffffffffffffffffffffffffffffffffffffffffffffe0908116603f01168101908282118183101715611fc857611fc8611f38565b81604052809350858152868686011115611fe157600080fd5b858560208301376000602087830101525050509392505050565b60006020828403121561200d57600080fd5b813567ffffffffffffffff81111561202457600080fd5b8201601f8101841361203557600080fd5b61157784823560208401611f67565b60006020828403121561205657600080fd5b610ecb82611e7d565b6000806040838503121561207257600080fd5b61207b83611e7d565b91506020830135801515811461209057600080fd5b809150509250929050565b600080600080608085870312156120b157600080fd5b6120ba85611e7d565b93506120c860208601611e7d565b925060408501359150606085013567ffffffffffffffff8111156120eb57600080fd5b8501601f810187136120fc57600080fd5b61210b87823560208401611f67565b91505092959194509250565b6000806040838503121561212a57600080fd5b61213383611e7d565b915061214160208401611e7d565b90509250929050565b600181811c9082168061215e57607f821691505b60208210811415612198577f4e487b7100000000000000000000000000000000000000000000000000000000600052602260045260246000fd5b50919050565b600083516121b0818460208801611ddb565b8351908301906121c4818360208801611ddb565b01949350505050565b7f4e487b7100000000000000000000000000000000000000000000000000000000600052601160045260246000fd5b6000821982111561220f5761220f6121cd565b500190565b600082821015612226576122266121cd565b500390565b60007fffffffffffffffffffffffffffffffffffffffffffffffffffffffffffffffff82141561225d5761225d6121cd565b5060010190565b7f4e487b7100000000000000000000000000000000000000000000000000000000600052601260045260246000fd5b6000826122a2576122a2612264565b500490565b6000826122b6576122b6612264565b500690565b7f4e487b7100000000000000000000000000000000000000000000000000000000600052603260045260246000fd5b600073ffffffffffffffffffffffffffffffffffffffff8087168352808616602084015250836040830152608060608301526123296080830184611e07565b9695505050505050565b60006020828403121561234557600080fd5b8151610ecb81611d9056fea26469706673582212208445587c5f6df6136fe9894fe11d9ddf82d2b99afa03a96bd9c89a31c102d50664736f6c63430008090033",
  "linkReferences": {},
  "deployedLinkReferences": {}
}